:100000000C94CA030C94E7030C94E7030C94E703E5
:100010000C94E7030C94E7030C94E7030C94E703B8
:100020000C94E7030C94E7030C949A2D0C946C2E1B
:100030000C94DC230C94E7030C94E7030C94E70383
:100040000C94E7030C94E7030C94E7030C94E70388
:100050000C94E7030C9444240C94E7030C94E703FA
:100060000C94E7030C94E7030C94E7030C94E70368
:100070000C94E7030C94E7030C94E7030C94E70358
:100080000C94E7030C94E7030C94E7030C94E70348
:100090000C94E7030C94E7030C94E7030C94E70338
:1000A0000C94E7030C94E7030C94E7033F04420429
:1000B000450448044B044D0450046A077007770751
:1000C00083078F079B07A707D207D707E107D50745
:1000D000DA07DF07DD070F0911091C0913091509E4
:1000E000170919091B091E09200922092D092409CC
:1000F000260928092A092C092F09331933196519EA
:1001000065199C19BC19251B831BFE19831BAB1A8F
:10011000AB1A1C1B831B831B7D1BB81AB81AB81A99
:10012000B81AB81AB81AB81AB81AB81AB81AB81A3F
:10013000B81AB81AB81AB81AB81AC91AD61ADD1ADB
:10014000E41AEE1A0E1C0E1C201C201C171C201C6E
:10015000201C201C0E1C0E1C1C1C201C201C1C1CEB
:10016000D92E002FF22F002FF22F4C2F6F2FF22FAE
:10017000C52FD42F07634236B79BD8A71A396856C4
:1001800018AEBAAB558C1D3CB7CC5763BD6DEDFDB9
:10019000753EF6177231BF000000803F05A84CCDB8
:1001A000B2D44EB93836A9020C50B9918688083CB1
:1001B000A6AAAA2ABE000000803F6572676F646F1E
:1001C000785F657A2F653236326664383032336351
:1001D000373731303963653165204020302E362E77
:1001E0003138302D32322D673338356465372D6420
:1001F00069727479000000F0A129002B000041E130
:1002000000354100001E00140004001D6134004D43
:10021000001F001A0016001B00E1042A002000083D
:100220000007000600E2002C00210015000900195B
:1002300000E0004A00220017000A000500000065E7
:1002400064500001530000000F0000E3004F000164
:1002500053000000070000E20023001C000B001107
:100260000000002961240018000D001000E0004B80
:100270000025000C000E003600E2002800260012C7
:10028000000F0037002F002B0027001300334238E7
:100290007130004E002D0031002D68E30001510047
:1002A000002900010001000100010000003A001EC9
:1002B00002200222020100E35C3B001F0221022314
:1002C000020100C95C3C002F0226022F000100CA77
:1002D0005C3D003002270230000100E25C3E00314C
:1002E00002350035020000C35C010001000000017E
:1002F000000000E15C01000100000001000000C2FC
:100300005C3F005200510024020000E05C400024E9
:100310000021001E005000E45C4100250022001F67
:10032000004F00C55C42002600230020002700C6C5
:100330005C430025022E0231002E00E55C4400459E
:1003400000010001000100000001000100010001A6
:100350000001000000010001000100010001000196
:10036000000100F900F2000100010001000100F0AD
:1003700000F1000100F400B7000100FA00F30001F1
:1003800000F5000100010001000100010000000172
:100390000001000100000001000000010001000157
:1003A0000000000100000001000100010001000147
:1003B000000000010001000100FD000100A9000192
:1003C00000010001000100AC00AA00B6000100011C
:1003D000000100AB00A800010001000100010001C4
:1003E000000100010001000100AE00010001000059
:1003F0000000000000000000002A2B280000000080
:1004000000000000000000000000000029000000C3
:10041000002C1E3420212224342627252E362D3769
:1004200038271E1F202122232425263333362E373A
:10043000381F0405060708090A0B0C0D0E0F1011D2
:1004400012131415161718191A1B1C1D2F313023DF
:100450002D350405060708090A0B0C0D0E0F1011A7
:1004600012131415161718191A1B1C1D2F313035AD
:100470004C00000000000000000000000000000030
:10048000000000000000000000000000000000006C
:100490000000010101010101000101010100000052
:1004A0000000000000000000000000010001000149
:1004B000010101010101010101010101010101012C
:1004C000010101010101010101010101000000011F
:1004D000010000000000000000000000000000001B
:1004E0000000000000000000000000000101010108
:1004F0000000047F3F1F643214643214783C1E1ED7
:10050000140A056801F000B40078005A00000000E9
:1005100000000101010101010101010202020202C8
:10052000020202020303030303030303040404049B
:100530000404050505050506060606060707070760
:10054000080808080909090A0A0A0A0B0B0B0C0C0F
:100550000C0D0D0D0E0E0F0F0F10101111111212A8
:1005600013131414151516161717181819191A1A23
:100570001B1C1C1D1D1E1F1F202021222223242581
:100580002526272728292A2B2B2C2D2E2F2F3031BB
:100590003233343536363738393A3B3C3D3E3F40CE
:1005A00041424344464748494A4B4C4D4F505152B3
:1005B00053555657585A5B5C5E5F6062636466676A
:1005C000696A6C6D6E707173747678797B7C7E80ED
:1005D00081838486888A8B8D8F91929496989A9B3A
:1005E0009D9FA1A3A5A7A9ABADAFB1B3B5B7B9BB4B
:1005F000BDBFC1C4C6C8CACCCFD1D3D6D8DADCDF20
:10060000E1E4E6E8EBEDF0F2F5F7FAFCFF04033085
:1006100000000016034500720067006F0044006F81
:10062000007800200045005A0000001603450072C3
:100630000067006F0044006F007800200045005AFA
:100640000000000403090409023B00020100A0FAB3
:100650000904000001030101000921110100012228
:1006600040000705810308000A0904010001030096
:10067000000009211101000122C0000705820320AA
:10068000000A1201100100000008EDFE071301002E
:100690000102030105010902A10185020901A1006E
:1006A0000509190129051500250195057501810226
:1006B0009501750381010501093009311581257FF7
:1006C00095027508810609381581257F9501750801
:1006D0008106050C0A38021581257F950175088170
:1006E00006C0C005010980A101850316010026038B
:1006F000001A81002A8300751095018100C0050C45
:100700000901A1018504160100269C021A01002A94
:100710009C02751095018100C005010906A10185A3
:1007200005050719E029E7150025019508750181E0
:1007300002050819012905950575019102950175B4
:100740000391010507190029EF1500250195F075A2
:10075000018102C005010906A101050719E029E789
:100760001500250195087501810295017508810123
:100770000508190129059505750191029501750373
:1007800091010507190029FF150026FF0095067540
:10079000088100C011241FBECFEFDAE0DEBFCDBF5D
:1007A00011E0A0E0B1E0E8EEF7E602C005900D929E
:1007B000A43DB107D9F723E0A4EDB1E001C01D923B
:1007C000AA3AB207E1F70E94BC2A0C94F2330C94C7
:1007D000000080B38C7080BB81B3836F81BB0895B0
:1007E00084B1807F84B985B1807F85B98AB1837FE8
:1007F0008AB98BB1837F8BB93E9846980895CF9381
:10080000E82F873090F58091000190910101892BAC
:1008100009F048C0CE2F64E670E080E40E9496059F
:100820009093010180930001892BD1F464E670E07C
:1008300082E10E94ED059093010180930001892BD4
:1008400079F481E090E001C0880FCA95EAF764E688
:1008500070E080950E94ED05909301018093000166
:1008600084E690E0CF910C94420690E0FC0137972B
:10087000E730F105B8F4EA5AFF4F0C949733209A09
:10088000289810C0219A29980DC0229A2A980AC047
:10089000239A2B9807C0529A01C0539A5B9802C0C2
:1008A0003E9A4698CF910895CF93873008F041C083
:1008B0008091000190910101892B09F043C064E609
:1008C00070E080E40E9496059093010180930001FE
:1008D000892B11F0C0E027C064E670E083E10E943C
:1008E000ED059093010180930001892B99F764E64F
:1008F00070E081E40E9496059093010180930001CD
:10090000892B41F784E690E00E941D0697FF05C001
:100910009093010180930001DDCFC82FC095109204
:1009200001011092000184E690E00E9442068C2FA3
:100930000AC09FB18FB1807F869586959370892B71
:10094000809501C080E0CF910895089508950C949A
:10095000A6040E94D40690E09093010180930001C8
:100960000E94F0030E94E90325ED31E0E9E2F2E0A4
:100970004EE04E0F119280E090E0D901A80FB91F10
:100980001C92019686309105C1F72A5F3F4F4E13A6
:10099000F1CF0C944A080E94D40690E09093010194
:1009A000809300010E94F0030E94E903E9E2F2E073
:1009B0008EE08E0F11928E13FDCF089526E0829F58
:1009C000C0011124FC01EB52FE4F20E030E080E03A
:1009D00041E050E09081992319F09150908307C035
:1009E000BA01022E01C0660F0A94EAF7862B2F5F28
:1009F0003F4F31962630310569F7089596E0699F9B
:100A0000B001112420E030E090E04FE0FC01022E24
:100A100002C0F595E7950A94E2F7E0FF06C0F901F8
:100A2000E60FF71FEB52FE4F40832F5F3F4F2630FC
:100A3000310561F70895CF92DF92EF92FF920F9305
:100A40001F93CF93DF938091000190910101892B37
:100A500091F08091D4018F5F8093D40181110BC0FC
:100A60000E94D40690E09093010180930001892BAD
:100A700011F40E94660689E2C82E82E0D82E90E327
:100A8000E92E92E0F92EC0E08C2F0E94FF0307E0D0
:100A90000C0F802F0E94FF038C2F0E94DE04182F62
:100AA0008C2F0E945404F6019081D12FD095D92328
:100AB0008123D82B6C2F8D2F89270E94FE04F601ED
:100AC000D1936F01802F0E94DE04182F802F0E9487
:100AD0005404F7019081D12FD095D9238123D82BAD
:100AE000602F8D2F89270E94FE04F701D1937F018B
:100AF0000E94F003CF5FC73039F60E94520881E0B0
:100B0000DF91CF911F910F91FF90EF90DF90CF90E9
:100B10000895E82FF0E0E75DFD4F80810895089586
:100B20001092B9008CE08093B8000895EF92FF9284
:100B30000F931F93CF93DF93182FEB011092BC00FC
:100B400084EA8093BC000E940E247C019091BC003A
:100B500097FD0EC0CF3F8FEFD807C1F30E940E2440
:100B60008E199F098C179D0788F38EEF9FEF2EC07B
:100B70009091B900987F983041F09091B900987F9A
:100B8000903119F08FEF9FEF21C01093BB0084E8E4
:100B90008093BC000E940E248C019091BC0097FDB4
:100BA0000CC0CF3F8FEFD807C1F30E940E24801BEB
:100BB000910B8C179D0788F3D8CF8091B900887F5F
:100BC000883111F08034F1F680E090E0DF91CF9130
:100BD0001F910F91FF90EF9008950F931F93CF9364
:100BE000DF93EB018093BB0084E88093BC000E94FC
:100BF0000E248C019091BC0097FD0EC0CF3F8FEF6B
:100C0000D807C1F30E940E24801B910B8C179D07FF
:100C100088F38EEF9FEF0CC02091B900287F81E010
:100C200090E0283211F480E090E09195819591094F
:100C3000DF91CF911F910F9108950F931F93CF9341
:100C4000DF93EC0184E88093BC000E940E248C01A9
:100C50009091BC0097FD0EC0CF3F8FEFD807C1F336
:100C60000E940E24801B910B8C179D0788F38EEF3A
:100C70009FEF03C08091BB0090E0DF91CF911F9167
:100C80000F9108950F931F93CF93DF93EC0184E9A5
:100C90008093BC000E940E248C019091BC0094FFB4
:100CA0000EC0CF3F8FEFD807C1F30E940E24801BE8
:100CB000910B8C179D0788F38EEF9FEF02C080E0A9
:100CC00090E0DF91CF911F910F91089556985E9813
:100CD00025982D9826982E9827982F988FEF90E09A
:100CE000909389008093880090938B0080938A0072
:100CF00090938D0080938C00259A2D9A2FEF80E79A
:100D000092E0215080409040E1F700C00000269A18
:100D10002E9A2FEF80E792E0215080409040E1F73B
:100D200000C00000279A2F9A2FEF80E792E0215011
:100D300080409040E1F700C0000025982D982FEFEB
:100D400080E792E0215080409040E1F700C0000031
:100D500026982E982FEF80E792E021508040904017
:100D6000E1F700C0000027982F9856985E982598C4
:100D70002D9826982E9827982F98089589EA809381
:100D8000800089E08093810024982C983F988AB154
:100D90008F7C8AB96E98479A8BB180638BB9769AAB
:100DA0000E9466060C94A50480E290E090930101F5
:100DB000809300018091370281110EC00E9490053E
:100DC00081E0809337022FEF83ED90E32150804044
:100DD0009040E1F700C0000064E670E080E40E940B
:100DE00096059093010180930001892B09F050C072
:100DF00064E670E080E00E94ED059093010180932D
:100E00000001892B09F044C064E670E080E00E9494
:100E1000ED059093010180930001892BC9F564E6EB
:100E200070E08FE30E94ED05909301018093000133
:100E3000892B71F584E690E00E94420664E670E03A
:100E400080E40E9496059093010180930001892B14
:100E5000F9F464E670E08CE00E94ED0590930101E6
:100E600080930001892BA1F464E670E080E00E9489
:100E7000ED059093010180930001892B49F464E60C
:100E800070E08FE30E94ED059093010180930001D3
:100E900084E690E00E94420680910001089561116D
:100EA00008C0FC018281882321F08AEB91E00E9436
:100EB000470880E090E00895FC01EF5DFC45E730D5
:100EC000F10508F053C0DB01E35AFF4F12968C91F5
:100ED0000C949733882309F44AC00E94FA2244C034
:100EE000882309F444C081E00E9459113DC0882341
:100EF000F1F10E946F1181E00E9459114FEF6FEFE5
:100F000080EF90E02FC0882391F10E946F1181E063
:100F10000E94591140E86FEF8CE291E023C08823D2
:100F200031F10E946F1181E00E9459114FEF6FEF74
:100F300086E290E017C08823D1F00E946F1181E013
:100F40000E9459114FEF6FEF80E090E00BC08823B3
:100F500071F00E946F1181E00E94591140E86FEF1B
:100F600088E790E00E947C1080E0089581E0089579
:100F7000CF92DF92EF92FF926B017C010E943C22A4
:100F800056985E9825982D9826982E9827982F98F1
:100F900090E0FC013197E730F105A8F4EC59FF4FE0
:100FA0000C949733259A2D9A0EC0259A2D9A269A3D
:100FB0002E9A09C0259A2D9A04C0259A2D9A269A10
:100FC0002E9A279A2F9AC701B601FF90EF90DF90D3
:100FD000CF90089581E008950C945C07CF93282F5B
:100FE00030E0F901EF50FC4FC491F901EF58FB4F8D
:100FF0002491222359F081EE0E9470178C2F0E94B9
:1010000070178C2F0E94891881EE04C08C2F0E94CB
:1010100070178C2FCF910C9489180F931F93CF9337
:10102000DF93EC01062FFE018491882359F19E0184
:101030002F5F3F4F813041F4E901F9011491812F75
:101040000E947017812F0DC0823031F4E901F9013F
:1010500084910E9470170AC0833031F4E901F901CC
:1010600084910E94891802C00E94EE072196802F69
:101070008823C9F2EFE9FFE03197F1F700C00000E3
:101080008150F6CFDF91CF911F910F91089560E0CD
:101090000C940D080E948C22811102C00E94FA2239
:1010A0000C94BE060C94A704282F2F7041F0822FB9
:1010B00090E02A3010F44D9608950697089587E23F
:1010C00090E0089508950C9462080C9463080895C4
:1010D0000E94FC1B0E9467082FEF84E39CE02150D4
:1010E00080409040E1F700C000000C946A24FF9219
:1010F0000F931F93CF93DF938C01FC01C081D181AB
:1011000080918202811113C08281882349F0CE012F
:101110000E942F21F82E682FCE010E94D22004C0F9
:10112000CE010E940221F82EBE018F2D04C0CE01F7
:101130000E942F21BE010E94360BEC01B8010E94D3
:10114000EC07882309F48AC2B801CE010E949F0DE2
:10115000882309F483C2CC3CFCE5DF0741F4F801A5
:101160008281882309F47AC20E94650F77C2CD3C40
:101170008CE5D80708F01EC1C43C9CE5D90761F492
:10118000F8018281882309F469C20E9400228272D8
:10119000E1F40E94661162C2C53CECE5DE0708F08E
:1011A000C7C0C531FCE5DF0798F0C23CFCE5DF07AE
:1011B00009F48CC008F492C0F8018281882309F4F4
:1011C0004DC20E940022827221F70E945C1146C229
:1011D000C2308CE5D80708F452C0F8018281882318
:1011E00009F459C00E948C22811102C00E94FA2287
:1011F0000E949F2290E090939C0380939B03FE01AA
:10120000E350FC45E231F10530F4E559FF4F8091A0
:101210009B030C94973380919B03816027C082606D
:1012200025C0846023C0806121C080621FC08064AB
:101230001DC080681BC08460886018C08E7F16C087
:101240008D7F14C08B7F12C08F7E10C08F7D0EC02B
:101250008F7B0CC08F770AC08B7F877F07C087FB8F
:10126000222720F991E0922790FB87F980939B0336
:1012700080919B030E94A3220E94FC1BEFC1C11519
:101280009CE5D90781F0C130DC45A9F081E080936D
:101290003D0280933E02C801DF91CF911F910F91D3
:1012A000FF900C94EA07F8018281882309F4D6C1E3
:1012B0000E946808D3C1F8018281882309F4CEC155
:1012C00080912103816080932103C8C1F80182814C
:1012D000882309F4C3C10E94C411C0C1C631DC45D2
:1012E000A9F60E940022282FF801828140910F0167
:1012F00050911001882379F02A7A91E009F490E066
:1013000090933802911102C069E201C065E3CA01FD
:101310000E9461230AC080913802811102C069E2F3
:1013200001C065E3CA010E946C230E94CD2196C1D1
:10133000F8018281C83CFCE5DF0731F4882309F419
:101340008DC10E94C8108AC1C93C9CE5D907C8F468
:10135000C63CECE5DE0731F4882309F47FC10E9426
:1013600097107CC1C73CDC4530F4882309F476C172
:101370000E947F1073C1882309F470C10E94B610C7
:101380006DC1CA3C9CE5D90731F4882309F466C1D4
:101390000E94F51063C1CB3CDC4530F4882309F48E
:1013A0005DC10E94DA105AC1882309F457C10E9416
:1013B000500F54C1C43DFCE5DF07C1F4F801828140
:1013C000882309F44BC10E94420F693171058105E0
:1013D000910540F00E94420F62327105810591052E
:1013E00008F4F3CE89E10E94591138C1C53D8CE55E
:1013F000D80708F086C0F8018281C03DFCE5DF0710
:10140000A1F4882309F42AC10E94420F69307105B2
:101410008105910540F00E94420F6E3071058105F3
:10142000910508F4D2CE89E0DECFC13D9CE5D90715
:10143000A0F5CE3CECE5DE07A1F4882309F40EC14B
:101440000E94420F623071058105910540F00E94B3
:10145000420F653071058105910508F4B6CE82E032
:10146000C2CFCF3CDC4528F4882309F4F7C081E0E3
:10147000BACF882309F4F2C00E94420F663071058A
:101480008105910540F00E94420F68307105810589
:10149000910508F49ACE86E0A6CFC23D9CE5D90717
:1014A000A1F4882309F4DAC00E94420F6531710566
:1014B0008105910540F00E94420F67317105810559
:1014C000910508F482CE85E18ECFC33DDC45A0F4C2
:1014D000882309F4C3C00E94420F6F307105810553
:1014E000910540F00E94420F64317105810591051C
:1014F00008F46BCE8FE077CF882309F4AFC088E182
:1015000072CFC83DFCE5DF0759F5F80182818823D9
:1015100061F010923E020E940E2490933C02809350
:101520003B0280E20E94F11899C080913E0288231C
:1015300021F080E20E94F81891C080913B029091C6
:101540003C020E941A24883C910598F780E20E9490
:10155000F81888E20E94701788E20E9489187EC0FD
:10156000C93D8CE5D80708F058C0F8018281C63D16
:10157000FCE5DF0751F5882351F010923D020E94EF
:101580000E2490933A028093390282E0CBCF0E94DE
:10159000002285FF05C081E080933D0280933E02DA
:1015A00080913D0281110FC08091390290913A02E1
:1015B0000E941A24883C910530F486E20E9470173C
:1015C00086E20E94891882E0B5CFC73DDC4528F449
:1015D000882309F443C083E206CF81119ACF0E9489
:1015E000002281FF05C081E080933D0280933E028E
:1015F00080913E0281119DCF80913B0290913C02EF
:101600000E941A24883C910508F093CF87E20E943B
:10161000701787E20E9489188CCFCC3DECE5DE077D
:1016200041F4F80182818823C9F082E00E945D2B99
:1016300015C0CD3DFCE5DF0739F4F8018281882330
:1016400069F00E94FA220AC0CB3DDC4509F01ECEAB
:10165000F8018281882311F080E0E8CF80E0DF91FB
:10166000CF911F910F91FF900895089596E0799F73
:10167000F001112494E5899FE00DF11D1124E60F7E
:10168000F11DEE0FFF1FE750FE4F859194910895D5
:10169000880F991FFC01EB50FE4F8591949108959E
:1016A000CF93DF930E94360B0E94FF0CEC01811553
:1016B00020E59207F0F5811530E4930708F021C189
:1016C000883E910500F5803E910508F094C1883A66
:1016D000910570F4853A910508F0A3C08130910519
:1016E00009F489C108F440C1049708F084C13CC1E1
:1016F0008D3B910508F4A0C0803C910508F434C1ED
:10170000805C9109F0C08115904258F4C11581E0C8
:10171000D80708F070C1C03FD10508F425C1D065D5
:101720006AC1C11590E3D90708F0E1C0CE019F70EE
:10173000DAC0811525E5920708F043C0811534E52C
:10174000930708F0F5C0811542E5940708F5C11527
:1017500081E5D80708F0D8C02C2F237081E090E0F5
:1017600002C0880F991F2A95E2F79C689E0174E0D9
:10177000369527957A95E1F72370922BCF70C69511
:10178000C69540E2C49FE0011124C82BD92B33C178
:10179000869586959E0123703327C115D34508F0A1
:1017A000B8C040E2849FC0011124C1E0D0E002C073
:1017B000CC0FDD1F2A95E2F78C2B9D2BEC01DC680A
:1017C0001AC181152AE5920798F4811539E5930726
:1017D00008F0B9C08115964508F4AFC0C11588E579
:1017E000D80708F4C1C0DC2FCC27C06FD06A03C172
:1017F000C1159BE5D90708F4B7C0C1152CE5D20780
:1018000008F4AFC0CE0190568115904208F0ACC0EC
:101810008D2F8F710E947C0DDD27D0628F71D82BA8
:10182000EAC0853A910509F4A2C0863A910509F00B
:10183000A1C0C2E8D0E4DFC0883A910509F49DC098
:10184000893A910509F49CC08A3A910509F49BC034
:101850008B3A910509F49AC08C3A910509F499C024
:101860008B3B910509F498C08C3B910509F497C016
:101870008D3A910509F496C0803B910509F495C015
:101880008E3A910509F494C08F3A910509F493C0FA
:10189000813B910509F492C0823B910509F491C006
:1018A000833B910509F490C0843B910509F48FC0F6
:1018B000853B910509F48EC0863B910509F48DC0E6
:1018C000873B910509F48CC0883B910509F48BC0D6
:1018D000893B910509F48AC08A3B910509F489C0C6
:1018E000C0E0D4E488C00E94480BEC0184C0CE0163
:1018F0009927D3FF03C0EC01D86C7DC0EC01D06CFC
:101900007AC0DF70D06A77C0DC2FCC27C16FD06A75
:1019100072C040E2849FC0011124C1E0D0E002C047
:10192000CC0FDD1F2A95E2F7C82BD92BDA6863C0EC
:10193000D82FCC27C46FD06A5EC0CF71DD27DC2FD3
:10194000CC27D06258C08F70806E90E0906A24E0FF
:10195000D695C7952A95E1F7CF709C013C2BE901FC
:101960004AC0DD27D06647C0C0E0D0E044C0C1E82F
:10197000D0E441C0C3E8D0E43EC0C2EED4E43BC0F2
:10198000C9EED4E438C0CAEED4E435C0C5EBD4E423
:1019900032C0C6EBD4E42FC0C3EBD4E42CC0C4EBFC
:1019A000D4E429C0C7EBD4E426C0CCECD4E423C0F3
:1019B000CDECD4E420C0C3E8D5E41DC0CAE8D5E42A
:1019C0001AC0C2E9D5E417C0C4E9D5E414C0C1E225
:1019D000D6E411C0C3E2D6E40EC0C4E2D6E40BC024
:1019E000C5E2D6E408C0C6E2D6E405C0C7E2D6E444
:1019F00002C0CAE2D6E4CE01DF91CF9108958238C9
:101A0000910549F1B0F48133910509F458C048F4C7
:101A10008932910509F44EC08A32910509F454C007
:101A200008958533910509F440C08933910599F0F3
:101A30000895833E910529F138F4803E910591F097
:101A4000823E9105A1F00895863E9105F9F0873E0A
:101A5000910531F1089520919B0320FD3AC021FDAD
:101A600038C0089580919B0380FD35C032C08091BD
:101A70009B0382FF32C080919B0384FD30C083EEC4
:101A800039C080919B0382FD28C0F5CF80919B03D4
:101A900083FF27C080919B0384FD21C087EE2AC06D
:101AA00080919B0383FD1DC0F5CF80919B0385FD35
:101AB0001AC01BC080919B0385FD17C014C0809184
:101AC0009B0386FD14C015C080919B0386FD11C049
:101AD0000EC080EE0FC089E30DC082EE0BC080E027
:101AE00009C086EE07C089E205C085E303C08AE22B
:101AF00001C081E390E0089590919B0392FF0DC097
:101B0000282F2871283019F4877F846006C0282F79
:101B10002471243011F48B7F886093FF0DC0282F2F
:101B20002871283119F4877E846106C0282F24711A
:101B3000243111F48B7E886194FD877E0895CF93C4
:101B4000DF93813020E8920778F0FB012281222385
:101B500059F0EC010E94B80D0E94C60DCE019F778E
:101B60000E948E0E0E94420E81E0DF91CF91089577
:101B700080913F02811109C08CE090E00E94AA335D
:101B80008093400281E080933F020895E0910F012D
:101B9000F091100180818093530381FF03C081EE97
:101BA0000E9489188091530385FF03C085EE0E942F
:101BB00089188091530380FF03C080EE0E9489182A
:101BC0008091530384FF03C084EE0E9489188091A2
:101BD000530382FF03C082EE0E9489188091530351
:101BE00086FF03C086EE0E9489188091530383FF0D
:101BF00003C083EE0E9489188091530387FF03C0BE
:101C000087EE0E94891880914002823001F1A8F489
:101C10008823C9F0813079F580EE0E94701781EE3B
:101C20000E94701788E10E94701788E10E9489184D
:101C300081EE0E94891880EE1CC0843081F08530CE
:101C4000D1F486EE01C082EE0E94701714C082EEBD
:101C50000E94701787E50E94701787E50AC086EE1C
:101C60000E94701786EE0E94891888E10E94701702
:101C700088E10E9489188FE39CE90197F1F700C081
:101C80000000089580914002813049F030F08230A8
:101C900021F0853051F486EE06C082EE04C08CE25D
:101CA0000E9470178CE20E9489188091530381FF73
:101CB00003C081EE0E9470178091530385FF03C01B
:101CC00085EE0E9470178091530380FF03C080EE61
:101CD0000E9470178091530384FF03C084EE0E941A
:101CE00070178091530382FF03C082EE0E94701729
:101CF0008091530386FF03C086EE0E947017809187
:101D0000530383FF03C083EE0E9470178091530337
:101D100087FF03C087EE0C9470170895EF92FF922F
:101D20001F93CF93DF937C01CCE0D0E097010C2E82
:101D300002C0369527950A94E2F7122F1F70812F63
:101D40000E9454080E947017812F0E9454080E941C
:101D500089182497CC3F8FEFD80741F7DF91CF91B7
:101D60001F91FF90EF900895EF92FF920F931F93B2
:101D7000CF93DF93E901662309F44BC0242F30E0B1
:101D8000EFEFF0E0E61BF109B901E69F9001E79F54
:101D9000300DF69F300D1124232F8B01031B1109E9
:101DA0005CE3E52EF12CB7010E946F33FB01BC010F
:101DB000069FC001079F900D169F900D1124B7013B
:101DC0000E946F33E230F105B1F040F4309779F0C2
:101DD000319711F5832F242F461B21C0E430F105E4
:101DE000A1F068F03597C1F4842F861B18C0832FAB
:101DF000262F230F14C0862F830FE42F03C0E42F58
:101E0000E61B842F432F2E2F0AC0842F462F430F0B
:101E100006C0842F242F03C080E020E040E0E42FA0
:101E2000F0E0E35FFA4F4491E22FF0E0E35FFA4F16
:101E30009491E82FF0E0E35FFA4FE49149839883AF
:101E4000EA83DF91CF911F910F91FF90EF9008955A
:101E500088E090E00C94B233AB01BC0188E090E0E4
:101E60000C94D033E4E5F3E083E0808310925503D3
:101E70008FEF828383831482608171818281938159
:101E80000C942C0F6091540360FF06C066956F732D
:101E900070E080E090E0089560E070E0CB0108958C
:101EA0008091580390E001968430910514F083E00E
:101EB00090E0809358036091540370915503809192
:101EC0005603909157030C942C0F8091580390E087
:101ED000019797FF02C080E090E08430910514F0F4
:101EE00083E090E080935803609154037091550310
:101EF00080915603909157030C942C0F80915403BA
:101F000080FF06C06FE070E089E593E00C948015D7
:101F100080E090E0FC01E75AFC4F118210821282AF
:101F200004968C339105B1F7EDCF9091540390FF57
:101F30000FC020E030E0F901E75AFC4F8183608355
:101F400042832C5F3F4F2C333105A9F70C947E0F51
:101F50000895CF93DF9300D000D0CDB7DEB72091A6
:101F6000540320FF0AC09E012F5F3F4F0E94B40E12
:101F70004B8169818A810E94950F0F900F900F907D
:101F80000F90DF91CF9108955F926F927F928F9221
:101F90009F92AF92BF92CF92DF92EF92FF920F93F8
:101FA0001F93CF93DF9300D000D0CDB7DEB78C0165
:101FB000E62EF42E522E8091540380FF89C0982F74
:101FC0009E77923061F49E012F5F3F4FC8010E94BF
:101FD000B40E4B8169818A810E94950F59C0E82F08
:101FE000E695EF739EE39E0F9F73943018F4F09084
:101FF00057034EC09AE39E0F9F73993068F4881F71
:102000008827881F90915503292F220F022F082B14
:1020100097FB112710F93CC087E28E0F8F738A302F
:10202000B8F5F0E07997E0FD02C021E001C02FEFA4
:10203000EE7FED5FFA4F859194916FE070E00E9422
:102040006F3326034001279F900C1124580188E923
:10205000A81A8EEFB80A89E5C82E83E0D82E98E634
:10206000692E77247394C501B3010E946F339601E2
:102070004F2D6E2D0E94B40EA80CB91C84E0C80E22
:10208000D11C85E9C81683E0D80669F70E947E0F47
:102090008091540300FB87F980935403902F969509
:1020A000809155038078892B10FB87F98093550325
:1020B000E0925603F0925703552051F0609154037B
:1020C0007091550380915603909157030E942C0FF5
:1020D0000F900F900F900F90DF91CF911F910F9164
:1020E000FF90EF90DF90CF90BF90AF909F908F9038
:1020F0007F906F905F90089521E00C94C40FE4E509
:10210000F3E02081221F2227221F30915503432F05
:10211000440F842F822B37FB992790F90C9668E6A1
:1021200071E00E948333438162810C947C10209182
:102130005403221F2227221F30915503432F440F9F
:10214000842F822B37FB992790F98C3091051CF452
:10215000845A9E4F01C00C9768E671E00E94833359
:1021600040915703609156030C947C10E4E5F3E032
:102170008081881F8827881F90915503292F220F5F
:1021800097FB992790F943816FEF822B0C947C1079
:10219000E4E5F3E08081881F8827881F909155032C
:1021A000292F220F97FB992790F9438160E0822B1A
:1021B0000C947C1040915703842F90E0843F91054C
:1021C00014F4445F01C04FEF80915403881F8827A7
:1021D000881F90915503292F220F97FB992790F97B
:1021E00060915603822B0C947C1040915703842FEE
:1021F00090E00C9714F04C5001C040E080915403E3
:10220000881F8827881F90915503292F220F97FB3D
:10221000992790F960915603822B0C947C1020E052
:102220000C94C40FCF939091540390FF40C09178C9
:10223000811102C0926007C0853210F0986403C01B
:102240008F73880F982B90935403662351F06091FD
:1022500054037091550380915603909157030E9447
:102260002C0FC09154036C2F66956F7370E04BE098
:1022700050E084E091E00E949D33892B19F0109288
:102280005E0203C081E080935E02CC1FCC27CC1F8E
:1022900090915503892F880F97FB992790F94091CA
:1022A0005703609156038C2BCF910C940F11CF9153
:1022B000089561E00C9412118091540386958F73F8
:1022C0008F5F853208F081E00C945911809154039E
:1022D00086958F73815009F484E20C945911E4E5DA
:1022E000F3E080818160808386958F730C9459110F
:1022F00060E00C941211809121038160809321038E
:102300000E948C22811104C00E94FA220E94320F86
:102310000E94280F609354037093550380935603D3
:10232000909357036E7761F40E94320F0E94280F3A
:10233000609354037093550380935603909357030F
:1023400081E080935E028091540380FF04C08695F3
:102350008F730C9478110895E4E5F3E080818E7F0B
:10236000808360817181828193810E942C0F109201
:102370005E022FEF80E792E0215080409040E1F72D
:1023800000C000000C947E0F8091540380FD0C94DB
:10239000AC110C946F11CF93C82F80915C02909177
:1023A0005D020E941A24EC2FF0E0E150FB4FE49113
:1023B000F0E08E179F0708F443C00E940E2490930C
:1023C0005D0280935C0260915B0270E080E090E0CF
:1023D0000E94703120E030E04FE753E40E949330D8
:1023E0002BED3FE049E450E40E9499320E9406330D
:1023F0000E940D312BE43AE34EE25FE30E94263067
:1024000020EF3BEF48ED52E40E9499320E943F31A9
:10241000462F80915403881F8827881F9091550369
:10242000292F220F97FB992790F960915603822B51
:102430000E94A90F80915B0290E0019680935B025D
:10244000CF910895CF93C82F8091590290915A024D
:102450000E941A24EC2FF0E0E450FB4FE491F0E0EE
:102460008E179F07E8F00E940E2490935A028093E3
:102470005902409157036091560380915702909101
:1024800058020E94A90F809157029091580201961C
:1024900068E671E00E946F33909358028093570270
:1024A000CF910895CF92DF92FF920F931F93CF9316
:1024B000DF93F82E80915502909156020E941A24C3
:1024C000EF2DE695F0E0E750FB4FE491F0E08E173A
:1024D0009F07E8F10E940E249093560280935502C4
:1024E00009E513E0C0E0D0E088E6C82EDD24D394EF
:1024F00080915302909154028C0F9D1FB6010E944F
:102500006F33980140915703609156030E94B40EB7
:1025100068960C5F1F4FC83681E0D80749F70E94C4
:102520007E0F2091530230915402F0FE0AC0C9017F
:102530000196BE010E946F33909354028093530220
:1025400006C0215031093093540220935302DF9189
:10255000CF911F910F91FF90DF90CF900895AF9290
:10256000BF92CF92DF92EF92FF920F931F93CF9380
:10257000DF93C82F80FF02C01FEF01C011E08091E0
:102580005102909152020E941A24C695EC2FF0E05D
:10259000EA50FB4FE491F0E08E179F0708F466C005
:1025A0000E940E24909352028093510229E5C22E7C
:1025B00023E0D22E3BE5E32E33E0F32EC0E0D0E063
:1025C000F70131971082F6011082F701108294E032
:1025D000A92EB12C00E080915002800F87FD815F11
:1025E000082E000C990BC817D907E9F480915703FE
:1025F0008A9DA0018B9D500D1124559547955595A9
:10260000479580915403881F8827881F9091550310
:10261000592F550F97FB992790F996016091560312
:10262000852B0E94B40E010FF1E0AF1AB10899F6A4
:10263000219684E0C80ED11CE4E0EE0EF11CCF30F0
:10264000D10509F0BDCF0E947E0F8091500211305C
:1026500031F4811102C08EE007C0815005C090E0C6
:102660000196BE010E94833380935002DF91CF9187
:102670001F910F91FF90EF90DF90CF90BF90AF90A0
:1026800008950F931F93CF93DF93C82F80914E022D
:1026900090914F020E941A24EC2FF0E0ED50FB4F76
:1026A000E491F0E08E179F0708F464C00E940E24A6
:1026B00090934F0280934E0280E090E0FC01E75A35
:1026C000FC4F11821082128204968C339105B1F76F
:1026D000C0E0D0E00FE010E0CE01B8010E948333EB
:1026E000FC0180914D02082E000C990BEE0FFF1F8C
:1026F000EE0FFF1FC817D907FCF080910301082EC9
:10270000000C990B8C179D07BCF09F01275A3C4F7A
:1027100080915403881F8827881F90915503592F53
:10272000550F97FB992790F94091570360915603F5
:10273000852B0E94B40E05C0E75AFC4F118210820F
:1027400012822196CF30D10539F60E947E0F8091FA
:10275000020190914D02980F90934D022091030138
:10276000280F20930301121614F49E301CF081955B
:1027700080930201DF91CF911F910F910895EF9205
:10278000FF920F931F93CF93DF9380914B02909111
:102790004C020E941A24883E9340D0F10E940E24DD
:1027A00090934C0280934B02C0914902D0914A020F
:1027B0002196C170DD27D0934A02C093490289E572
:1027C000E82E83E0F82E10E008E7812F8695FE01C1
:1027D000E80FF11DCF0181709927970140915703B0
:1027E00060915603FC010E9FC0010F9F900D1124B4
:1027F0000E94B40E1F5FF4E0EF0EF11C1F3029F7AA
:10280000DF91CF911F910F91FF90EF900C947E0F6D
:10281000DF91CF911F910F91FF90EF900895CF938B
:10282000DF9300D000D0CDB7DEB780914702909102
:1028300048020E941A24E1EFF4E0259134918217B6
:102840009307C0F18091460281110CC09E012F5F59
:102850003F4F4FEF6FEF80E090E00E94B40E8A810F
:10286000809346020E940E24909348028093470270
:1028700080914502813051F028F0823061F440911E
:1028800046020AC08091460240E007C060914602BD
:1028900040E080E003C040E080E060E00E94950FEF
:1028A0008091450290E0019663E070E00E948333DE
:1028B000809345020F900F900F900F90DF91CF9172
:1028C00008950F931F93CF93DF93809143029091CC
:1028D00044020E941A24843F914008F448C00E9498
:1028E0000E249093440280934302C9E5D3E000E0B4
:1028F00010E0209141023091420280915403909166
:102900005503073011051CF4232B79F002C0232B4B
:1029100061F4881F8827881F592F550F97FB992727
:1029200090F99E01409157030AC0881F8827881F8D
:10293000592F550F97FB992790F99E0140E0609120
:102940005603852B0E94B40E0F5F1F4F24960F3045
:10295000110579F60E947E0F80914102909142020A
:102960000196817099279093420280934102DF91F2
:10297000CF911F910F91089580915E028823D9F124
:1029800090915403892F86958F732EE3280F2F7310
:10299000243018F482500C94CB112AE3280F2F73A3
:1029A000233018F486500C94221227E3280F2F733B
:1029B000263018F489500C94521221E3280F2F73FB
:1029C000263018F48F500C94AF122BE2280F2F737F
:1029D000233018F485510C944113892F8E7780335E
:1029E00011F40C94BF13863411F40C940F14883432
:1029F00011F40C9461140895882319F05198599A90
:102A000002C0519A59985098589A95E09A95F1F7C2
:102A10000000509A589895E09A95F1F700008823A5
:102A200011F0519A599885E08A95F1F700000895C0
:102A30008BB18C7F8BB95098589A5198599A85E0F0
:102A40008A95F1F7000008958AB18C7F8AB985E0F4
:102A50008A95F1F70000519A599885E08A95F1F727
:102A60000000509A589885E08A95F1F70000089583
:102A70005098589A85E08A95F1F700005198599A34
:102A800085E08A95F1F700000895CF93DF93D82F62
:102A9000C8E08D2F80780E94FC14DD0FC150C9F76B
:102AA00080E00E94FC1485E08A95F1F7000085E043
:102AB0008A95F1F7000080E0DF91CF9108952BB166
:102AC000342F309523233BB1432B3FB7F894FC01BF
:102AD000680F791FE617F70789F0819198E04BB9E5
:102AE000000000C087FF2BB9880F000000C000C0A5
:102AF00000C02BB900C09A9591F7ECCF3FBF089565
:102B0000AF92BF92CF92DF92EF92FF920F931F93FB
:102B1000CF93DF938C01EB01CFB6D090BC00F8943B
:102B20008091BC008B7F8093BC000E9418150E948E
:102B3000241584E80E944515CC0FDD1FCC0FDD1F46
:102B400078015801AC0EBD1EEA14FB0431F0F70108
:102B500081917F010E944515F7CF0E943815CFBEA5
:102B6000D092BC00579A40E8BE01C801DF91CF91D6
:102B70001F910F91FF90EF90DF90CF90BF90AF909B
:102B80000C945F1590936402809363020895E09122
:102B90006302F0916402309721F00190F081E02D02
:102BA000099480E00895E0916302F0916402309707
:102BB00099F020912001222359F020919B0327FFB7
:102BC00007C0DC012C9111962C93119725E02C93D2
:102BD0000280F381E02D09940895E0916302F09161
:102BE0006402309739F022E0DC012C930480F581F7
:102BF000E02D0994089520916102309162028217BC
:102C0000930771F09093620280936102E0916302F6
:102C1000F0916402309721F00680F781E02D09944D
:102C2000089520915F02309160028217930771F03E
:102C30009093600280935F02E0916302F0916402DE
:102C4000309721F00084F185E02D0994089585B72F
:102C5000806885BF85B7806885BF089508950E9404
:102C600027160C942E1681E008950E9405240E94D8
:102C7000A9040E949C240C947B11CF92DF92EF92C6
:102C8000FF920F931F93CF93DF93CDB7DEB72B97B0
:102C90000FB6F894DEBF0FBECDBF0E941B050E9489
:102CA0003316811111C08FEF89838A831B820E94A2
:102CB0000E248160782F9D838C8349815A816B819A
:102CC0008D810E94211756C086E6C82E82E0D82E3C
:102CD00000E010E0E02E802F0E948905F60141916E
:102CE0006F01F42EF82631F40F5F1F4F0E301105DF
:102CF00089F7D9CF9091210391FF04C08B870E945F
:102D00008F058B8520E030E04F2D50E0922FBA01E7
:102D1000022E02C0759567950A94E2F760FF24C001
:102D20002E83EF8221E030E0690102C0CC0CDD1C73
:102D30009A95E2F790E08C219D21892B09F420E0FF
:102D400028870E940E248160782F9A8789874E8178
:102D50005F8168858A850E942117F801EA59FD4F35
:102D60008081C826C08206C02F5F3F4F26303105C4
:102D700069F6BACF0E942F26109165020E94C715EE
:102D80001817A1F00E94C715809365022B960FB605
:102D9000F894DEBF0FBECDBFDF91CF911F910F9191
:102DA000FF90EF90DF90CF900C9465082B960FB6B4
:102DB000F894DEBF0FBECDBFDF91CF911F910F9171
:102DC000FF90EF90DF90CF900895DC0111962C9149
:102DD00011978C91682F70E041E050E001C0440FE2
:102DE0008A95EAF712968C91129730E0882329F0A1
:102DF000809184028823E9F006C0F901EC58FD4F68
:102E000090819423B1F086E0829FF001839FF00DC2
:102E10001124E60FF71FEE0FFF1FEF5DFE4F8081BD
:102E200091818D939C93F901EC58FD4F8081482B43
:102E300006C0F901EC58FD4F40958081482340833E
:102E40000895CF93DF93CDB7DEB72B970FB6F894E5
:102E5000DEBF0FBECDBF942F4F83252F58876987C4
:102E60007A878B874A855B85452B21F02F3F09F5B3
:102E70009F3FF9F4DE01119686E0FD0111928A95DB
:102E8000E9F785E0FE01379601900D928A95E1F70A
:102E900049815A816B817C818D819E810E94A31E14
:102EA0002B960FB6F894DEBF0FBECDBFDF91CF914A
:102EB0000895CE0107960E94E516DCCFFC018081C3
:102EC00091810E946E2192959F70963041F480917D
:102ED000840291E08927809384029093830208956D
:102EE000CF93DF931F92CDB7DEB7882309F40DC1CE
:102EF000682F8238C1F40E94C71581FD06C169E3BD
:102F000080910F01909110010E9461230E94CD21B8
:102F10002FEF81EE94E0215080409040E1F700C017
:102F2000000069E319C0833811F50E94C71580FDC0
:102F3000ECC063E580910F01909110010E94612324
:102F40000E94CD212FEF81EE94E0215080409040EF
:102F5000E1F700C0000063E580910F01909110013E
:102F60000E946C230F90DF91CF910C94CD21843877
:102F7000C1F40E94C71582FDC8C067E480910F01AB
:102F8000909110010E9461230E94CD212FEF81EECC
:102F900094E0215080409040E1F700C0000067E4D9
:102FA000DBCF8CEF860F813A70F4862F69830E9405
:102FB000652869818111A9C080910F01909110014C
:102FC0000E946123CFCF80E2860F883048F467707B
:102FD00081E001C0880F6A95EAF70E940322C2CF00
:102FE0008BE5860F833088F4653A29F0663A31F034
:102FF00083E890E005C081E890E002C082E890E0BC
:103000000F90DF91CF910C94FB1588E5860F8531E9
:1030100008F071C0683A61F1693A69F16A3A71F190
:103020006B3A79F16C3A81F16B3B89F16C3B91F130
:103030006D3A99F1603BA1F16E3AA9F16F3AB1F1A5
:10304000613BB9F1623BC1F1633BC9F1643BD1F132
:10305000653BD9F1663BE1F1673BE9F1683BF1F192
:10306000693BF9F16A3B09F43FC080E090E03EC063
:1030700082EE90E03BC089EE90E038C08AEE90E0AE
:1030800035C085EB90E032C086EB90E02FC083EB3B
:1030900090E02CC084EB90E029C087EB90E026C044
:1030A0008CEC90E023C08DEC90E020C083E891E0B0
:1030B0001DC08AE891E01AC082E991E017C084E956
:1030C00091E014C081E292E011C083E292E00EC070
:1030D00084E292E00BC085E292E008C086E292E0D2
:1030E00005C087E292E002C08AE292E00F90DF9191
:1030F000CF910C941116603F40F0862F0E94372527
:103100000F90DF91CF910C9424260F90DF91CF91F7
:103110000895882309F464C0823879F40E94C715A1
:1031200081FF5EC069E380910F01909110010E94C0
:1031300061230E94CD2169E310C08338B1F40E945D
:10314000C71580FF4DC063E580910F01909110017C
:103150000E9461230E94CD2163E580910F0190912F
:1031600010010E946C230C94CD21843879F40E94C4
:10317000C71582FF35C067E480910F01909110015F
:103180000E9461230E94CD2167E4E7CF9CEF980F56
:10319000913A10F4682FE1CF90E2980F983050F4F4
:1031A000877091E001C0990F8A95EAF7892F0E94F4
:1031B0000922D9CF9BE5980F933020F480E090E06E
:1031C0000C94FB1598E5980F953120F480E090E081
:1031D0000C941116803F20F00E949F250C94242609
:1031E0000895882321F00E9403220C94CD21089594
:1031F000882321F00E9409220C94CD2108958F92FA
:103200009F92AF92BF92DF92EF92FF920F931F9324
:10321000CF93DF937C01D62FC72FFC010581029548
:103220000F70128111110E9420220E94C621882352
:1032300079F0112369F080E28D0F883048F082E048
:103240000E94AF210E94C62191E0D82ED92601C04C
:10325000D12CAC2EA2948FE0A822B12CF501E3581A
:10326000FF4F0C9497338C2F807FCF70882311F001
:10327000C295C07F112399F0CC2309F4C8C180E224
:103280008D0F883010F0D11104C08C2F0E940322C2
:1032900003C08C2F0E9413220E94CD21B8C18D2F14
:1032A0000E948918CC2309F42EC280E28D0F883049
:1032B00010F0D11104C08C2F0E94092203C08C2F62
:1032C0000E9419220E94CD211EC28C2F807FCF70B8
:1032D000803211F0C295C07FDD2319F0D130C9F0E2
:1032E00021C0112371F0002341F0013031F40E941C
:1032F00039228C2B0E94332206C20E9439228C2B49
:103300003FC1002319F0013009F4FDC10E943622AB
:1033100011C0112321F0023008F0F5C107C00111DE
:10332000F2C108C0112321F0011171C18C2F28C1F5
:1033300001117EC18C2F2AC18C2F869586958370B2
:1033400090E0009719F0019761F0DDC1112321F0A1
:103350008D2F9C2F937002C080E090E00E94FB159F
:10336000E2C1112321F08D2F9C2F937002C080E0C9
:1033700090E00E941116D7C11123F9F0D53F51F00A
:10338000D63F71F0D43FA9F48091950390919603B4
:1033900081600BC08091950390919603826005C077
:1033A0008091950390919603846090939603809307
:1033B00095038D2F0E9437251EC0D53F51F0D63F73
:1033C00071F0D43FA9F480919503909196038E7F7C
:1033D0000BC080919503909196038D7F05C08091DD
:1033E0009503909196038B7F90939603809395031A
:1033F0008D2F0E949F250E94242695C18C2F8370BB
:1034000009F050C011118BC18D2F82958695877060
:10341000880F880F9D2F9F70892E912CA12CB12C85
:10342000082E04C0880C991CAA1CBB1C0A94D2F755
:10343000D4FF14C00FE010E020E030E0B901A80193
:1034400004C0440F551F661F771F8A95D2F7CB0122
:10345000BA01609570958095909503C060E070E02A
:10346000CB01C695C695C370D0E0C230D10561F0DE
:10347000C330D10581F0682979298A299B292197B0
:1034800071F00E94E81F4BC1682979298A299B297C
:103490000E94FA1F44C10E94E81FC501B4010E94A6
:1034A000D61F3DC1112319F08C2F817001C0869564
:1034B000882309F434C18D2F829586958770880FF3
:1034C000880F9D2F9F70892E912CA12CB12C082E36
:1034D00004C0880C991CAA1CBB1C0A94D2F7D4FF08
:1034E00014C00FE010E020E030E0B901A80104C0F2
:1034F000440F551F661F771F8A95D2F7CB01BA017B
:10350000609570958095909503C060E070E0CB0168
:10351000C695C695C3704C2F50E04230510569F0F6
:103520004330510589F0682979298A299B2941303E
:10353000510571F00E94AD20F2C0682979298A29CD
:103540009B290E94BF20EBC00E94AD20C501B401A1
:103550000E949B20E4C08D2F90E0FC01E05EF10909
:10356000E531F10508F04FC0E357FF4F0C94973356
:10357000DF708C2F8F71112331F00E9434208D2F3A
:103580000E94F118C0C00E9455208D2F0E94F8188B
:10359000BAC0112339F00111B6C08C2F8F710E946F
:1035A0007A20B1C0023008F0AEC0F7CF112339F055
:1035B0008C2F8F710E943420A6C01123C9F38C2F49
:1035C0008F710E9455209FC0112329F08C2F8F717D
:1035D0000E941F2098C00E941A2095C0112349F014
:1035E000CF718C2F0E94342063E08C2F0E94A62183
:1035F0008AC081E00E94AF21023008F484C082E0DA
:103600000E94AF2180C0112331F0002389F28D2F59
:103610000E94701778C0002391F2D93349F45FEF0C
:1036200067EE73E0515060407040E1F700C0000069
:103630008D2F0E94891867C04C2F4F706D2FC701C6
:103640000E944F070E94471F6EC0D23FB1F028F47E
:10365000D03F49F0D13FF9F028C0D43FB9F058F03D
:10366000D53F71F022C0112309F447C09091840224
:1036700081E0892708C081E01827109384023DC0AB
:1036800011113BC081E08093840237C0111135C015
:103690001092840232C0112329F080918302882382
:1036A00029F329C0002311F328C08091830200234D
:1036B000C1F0882341F09091840281E089278093B2
:1036C0008402109283028D2F112319F00E9470172B
:1036D00014C00E94891886E0F70111928A95E9F7D3
:1036E0000CC0882351F0111108C09091840281E030
:1036F000892780938402109283024C2F4F706D2F84
:10370000C7010E94350BF8E0AF16B10441F05CF040
:103710004AE0A41AB10852E0A516B10420F40E94B0
:10372000C7150E946508DD20E1F00E94A22180FDFE
:1037300018C0F70112820E949C210E943420C70108
:103740000E94BD1B0E949C21DF91CF911F910F9180
:10375000FF90EF90DF90BF90AF909F908F900C9470
:103760005520DF91CF911F910F91FF90EF90DF9047
:10377000BF90AF909F908F9008950F931F93CF931A
:10378000DF93EC01888199812B813C81232BB9F057
:103790009F3F11F48F3F99F0CE010E947708882354
:1037A00071F0688179818A810E9479218C010E945F
:1037B000D1200E94D31FB801CE010E94FF18DF91D3
:1037C000CF911F910F9108950E9420220E943022D4
:1037D00080910F01909110010E9477230E94CD21CA
:1037E0000E94CA260E94242680E090E00E94FB15D9
:1037F00080E090E00C9411160E9410220C94E41BBF
:103800000E946E21E92FE295EF70F0E03297EE30E2
:10381000F105B0F4EE55FF4F0C949733803F91F0D3
:1038200018F4803E68F40EC0843F51F40BC0803E13
:1038300048F0813F29F406C093FB882780F908955A
:1038400080E0089581E00895CF93DF9300D000D009
:103850001F92CDB7DEB70F900F900F900F900F9083
:10386000DF91CF910895CF93DF9300D000D000D0A7
:10387000CDB7DEB726960FB6F894DEBF0FBECDBF2C
:10388000DF91CF9108951F93CF93DF93C09185026D
:1038900016E080918602C81799F0D0E01C9FF001D5
:1038A0001D9FF00D1124E957FD4F40815181628128
:1038B0007381848195810E94331C2196C770E9CF62
:1038C000DF91CF911F9108954091B7025091B802B6
:1038D0006091B9027091BA028091BB029091BC02D2
:1038E0000C94331C8091BC0282958F7009F054C0F7
:1038F0008091B902882309F44FC080918502A0917C
:1039000086026091B7027091B8024091BA0250915C
:10391000BB02B6E08A1709F43FC090E0411551059B
:10392000C1F17F3F11F46F3FA1F1B89FF001B99F42
:10393000F00D1124E957FD4F218172132AC0208117
:10394000621327C02281211124C0238134812417CE
:10395000350710F421503109241B350B283C310563
:10396000C0F42091BC022F7020612093BC0226E09D
:10397000289FF001299FF00D1124E457FD4F80810D
:103980008F708061808387EB92E00E94BD1B0C9456
:10399000431C01968770BECF0895CF92DF92EF92BD
:1039A000FF920F931F93CF93DF93CDB7DEB762974C
:1039B0000FB6F894DEBF0FBECDBF8C0185E0F801D5
:1039C000DE011D9601900D928A95E1F7D8014C9188
:1039D00011965C91119712966C9112971396CD9057
:1039E000DC9014973091B7027091B8028091BA02BE
:1039F0009091BB02009709F46BC17F3F19F43F3FE0
:103A000009F466C1E090B902EE2009F4C0C020912B
:103A1000BC02C816D90628F0F601E81BF90BCF0145
:103A200004C0809590958C0D9D1DFF24F394883CD7
:103A3000910578F0F12C207F09F0C6C07C2DD98A41
:103A4000C88A89890E94241C87EB92E00E94BD1BD2
:103A5000B1C0822F807F09F046C0751314C03413A3
:103A600012C0611110C02F7020612093BC020E940F
:103A7000641C87EB92E00E94BD1B8091BC02D801C0
:103A800015968C932EC0CD2819F15F3F11F44F3F4E
:103A9000F9F0F62E61111CC08091850220918602FA
:103AA00036E0821709F45AC090E0389FF001399F40
:103AB000F00D1124E957FD4F7181571306C0708135
:103AC000471303C07281711103C001968770E9CF5B
:103AD000F62E662309F427C18091BC028160809391
:103AE000BC02F12C20C1751308C0341306C061114B
:103AF00004C08091BC02D801C3C04D875E878D850C
:103B00009E856A8B0E94001C6A898823E1F16623E6
:103B1000D1F12091BC02822F82958F7090E00297A4
:103B200074F08091B7029091B80298878F831986BC
:103B3000DB86CA862C87CE0107960E94BD1B86E0D5
:103B4000F801A7EBB2E001900D928A95E1F70E948F
:103B5000721C0E94641CFF24F394E5C04D875E87AD
:103B60008D859E850E946E21292F22952F7030E031
:103B7000223031050CF0CBC09F7009F0C5C0805ECB
:103B8000883008F4D0C0C8010E94BD1BE4CFC8161D
:103B9000D90608F453C0F601E81BF90BCF01883CA5
:103BA000910508F450C0F12C7C2DD98AC88A8989E6
:103BB0000E94241CE7EBF2E086E0DF011D928A956B
:103BC000E9F70E94641CAFC0751314C0341312C00F
:103BD000611110C08091BC02F8018583C8010E9468
:103BE000BD1B86E0E7EBF2E0DF011D928A95E9F765
:103BF000FE2C99C04D875E878D859E856A8B0E94BD
:103C0000001C6A89882309F4BECF662309F4BBCF60
:103C10002091BC02822F82958F7090E002970CF465
:103C20008ECF8091B7029091B8029A8389831B82CC
:103C3000DD82CC822E83CE0101967FCF8095909538
:103C40008C0D9D1DACCFF62E662309F49CCF751309
:103C50002EC034132CC02091BC0220FD1FC0822F27
:103C600082958F70D9F0D80115962C9315978F30C7
:103C700049F08F5F982F9295907F822F8F70892BBC
:103C800015968C93C8010E94BD1B86E0F801A7EB36
:103C9000B2E001900D928A95E1F793CF86E0F801AA
:103CA000A7EBB2E001900D928A95E1F73CC04D87F9
:103CB0005E878D859E850E94001C811140CF80917A
:103CC000BC0281608093BC02C8010E94BD1B2BC056
:103CD000662309F458CF4D875E878D859E850E94A7
:103CE000001CF82E882309F44ECF86E0F801A7EBDC
:103CF000B2E001900D928A95E1F787EB92E00E9485
:103D00005E170E94721C5DCF811139CF0CC0243028
:103D100031050CF038CF9F7009F431CFF80195814F
:103D2000907F09F02CCF8F2D62960FB6F894DEBFEE
:103D30000FBECDBFDF91CF911F910F91FF90EF90FC
:103D4000DF90CF9008951F93CF93DF93CDB7DEB769
:103D50002C970FB6F894DEBF0FBECDBF4F835887A8
:103D600069877A878B879C87CE0107960E94CD1C36
:103D7000882369F08F8198852A853B85232BF1F173
:103D80009F3F09F063C08F3F09F060C037C086E0F5
:103D9000FE013796DE01119601900D928A95E1F7AA
:103DA0006F817885EA85FB85309741F17F3F11F47B
:103DB0006F3F21F12091860230E0C90101968770A2
:103DC00099274091850250E08417950709F447C070
:103DD00069837A83FD83EC8396E0929FD001939F61
:103DE000B00D1124A957BD4FFE01319601900D92DF
:103DF0009A95E1F7809386020E94431C16E0809119
:103E00008502909186028917C1F1189FC001112483
:103E100089579D4F0E94CD1C882379F1E09185023E
:103E20001E9FF0011124E957FD4F408151816281AD
:103E30007381848195810E94331C8091850290E07A
:103E400001968770992780938502D9CF4F81588535
:103E500069857A858B859C850E94331CCFCF0E9413
:103E6000FC1B1092860210928502E7EBF2E086E0DE
:103E7000DF011D928A95E9F7C1CF2C960FB6F89411
:103E8000DEBF0FBECDBFDF91CF911F910895EF929E
:103E9000FF920F931F93CF93DF938C01892B09F42B
:103EA0006CC0F12CEE24E394E8012196F801849192
:103EB000843740F4843008F051C0813081F0823082
:103EC00019F15BC0853709F444C0A8F19CE7980F4D
:103ED000903708F052C08F770E94891841C00E5F5A
:103EE0001F4FFE01C49180E28C0F883048F4C770E8
:103EF0008E2D01C0880FCA95EAF70E94232214C0B4
:103F00008C2F0E9470172DC00E5F1F4FFE01C491B1
:103F100080E28C0F883058F4C7708E2D01C0880F56
:103F2000CA95EAF70E9429220E94CD211AC08C2F3F
:103F30000E94891816C00E5F1F4FFE01C491CC234A
:103F400081F08FE99FE00197F1F700C00000C150B8
:103F5000F6CF0E5F1F4FFE01F49003C00E94701752
:103F60008E018F2D882309F49FCFEFE9FFE0319771
:103F7000F1F700C000008150F5CFDF91CF911F9184
:103F80000F91FF90EF90089508950C94C41F0E9424
:103F9000C51F6093F8027093F9028093FA02909320
:103FA000FB020C94E41B08950C94C71F0F931F93FE
:103FB0000091F8021091F9022091FA023091FB026F
:103FC000602B712B822B932B1F910F910C94C71F89
:103FD0000F931F930091F8021091F9022091FA02B9
:103FE0003091FB0260237123822393231F910F9151
:103FF0000C94C71F0F931F930091F8021091F902C0
:104000002091FA023091FB026027712782279327C3
:104010001F910F910C94C71F0C94B8070E940C209D
:104020006093F4027093F5028093F6029093F70286
:104030000C94E41B60E070E0CB010C940E200F9315
:104040001F9341E050E060E070E08A019B0104C0F2
:10405000000F111F221F331F8A95D2F7C901B80123
:104060001F910F910C940E200F931F9341E050E08D
:1040700060E070E004C0440F551F661F771F8A95EB
:10408000D2F78091F4029091F502A091F602B091DE
:10409000F7028A019B01082B192B2A2B3B2BC90104
:1040A000B8011F910F910C940E200F931F9341E0C4
:1040B00050E060E070E004C0440F551F661F771F9A
:1040C0008A95D2F740955095609570958091F4024D
:1040D0009091F502A091F602B091F7028A019B013E
:1040E000082319232A233B23C901B8011F910F91EB
:1040F0000C940E200F931F9341E050E060E070E0BD
:1041000004C0440F551F661F771F8A95D2F7809110
:10411000F4029091F502A091F602B091F7028A01A3
:104120009B01082719272A273B27C901B8011F919E
:104130000F910C940E200F931F930091F402109195
:10414000F5022091F6023091F702602B712B822B41
:10415000932B1F910F910C940E200F931F9300919E
:10416000F4021091F5022091F6023091F7026023DB
:104170007123822393231F910F910C940E200F9390
:104180001F930091F4021091F5022091F6023091F4
:10419000F70260277127822793271F910F910C94B4
:1041A0000E200895292F220F920F990F890FA82F03
:1041B000A695A695A695877051E001C0550F8A95E2
:1041C000EAF785E0A89FD001112420E030E070E0FC
:1041D000F901EA0FFB1FE354FD4F4081CB01022E92
:1041E00002C0969587950A94E2F781709927819588
:1041F00084278523842780832F5F3F4F2530310517
:1042000039F70895292F220F920F990F890F682FE0
:10421000669566956695982F977085E0689FB001C2
:10422000112440E050E080E0FA01E60FF71FE3546C
:10423000FD4F208130E0092E02C0369527950A9463
:10424000E2F721703327042E01C0220F0A94EAF707
:10425000822B4F5F5F4F4530510531F70895CF9264
:10426000DF92EF92FF920F931F93CF93DF938C0116
:10427000C090F802D090F902E090FA02F090FB02B0
:104280008091F4029091F502A091F602B091F702AC
:10429000C82AD92AEA2AFB2ACFE1D0E0D701C601F1
:1042A0000C2E04C0B695A795979587950A94D2F7DA
:1042B00080FF06C0B8018C2F0E94500B019721F49B
:1042C000219760F780E001C08C2FDF91CF911F9183
:1042D0000F91FF90EF90DF90CF900895CF93DF93F1
:1042E000EC010E942F21BE010E94500BDF91CF9163
:1042F00008951F93CF93DF93EB019091820299234E
:1043000021F0CB010E946E2113C0882349F0CB011C
:104310000E942F21182F682FCE010E94D22004C0A6
:10432000CB010E940221182FBE01812F0E94500B49
:10433000DF91CF911F9108958091FC02859585951D
:10434000859508958091FC028770089598E0899F73
:1043500090011124262B2093FC020C9434202091F0
:10436000FC02809582238093FC02982F977069F459
:1043700030E0482F082E000C550B2417350729F084
:104380008595859585950C94552008959091FC020E
:10439000977081E009F480E00895E0910F01F091B9
:1043A0001001809120038083E0910F01F0911001B2
:1043B000908180911F03892B8083E0910F01F09100
:1043C0001001908180911E03892B80838091FD02D2
:1043D000882381F0E0910F01F09110019081892BE9
:1043E000808380910F01909110010E94FC22811125
:1043F0001092FD0280910F01909110010C94D31541
:1044000080912003089590912003892B80932003AD
:104410000895809590912003892380932003089527
:1044200010922003089590911F03892B80931F03FE
:104430000895809590911F03892380931F03089509
:1044400010921F03089590911E03892B80931E03E1
:104450000895809590911E03892380931E030895EB
:1044600010921E0308958093FD0208951092FD029C
:1044700008958091FD020895CF92DF92EF92FF920E
:104480006C01EE24FF24C114D104E104F10421F0F5
:10449000C701B60120E101C020E0C72ED82EE92EC9
:1044A000FF24C114D104E104F10419F0285FC7010D
:1044B000B6016B017C0154E0F694E794D794C7945D
:1044C0005A95D1F7C114D104E104F10419F02C5F1D
:1044D000C701B6016B017C0142E0F694E794D794E2
:1044E000C7944A95D1F7C114D104E104F10419F03D
:1044F0002E5FC701B601DC01CB01B695A795979554
:104500008795892B8A2B8B2B09F02F5F822FFF90A9
:10451000EF90DF90CF90089580E090E00E94B83354
:1045200021E08D3E9E4F09F020E0822F089582E029
:1045300090E00C94AA3383E090E00C94AA3384E0DA
:1045400090E00C94AA33682F84E090E00C94BE3382
:10455000AB01BC018FE090E00C94D033AB01BC0107
:1045600083E190E00C94D03360E070E0CB010C94D8
:10457000AE2260E070E0CB010E94A8220C94B4222D
:104580006DEE7EEF80E090E00E94DC3360E082E040
:1045900090E00E94BE3360E083E090E00E94BE3372
:1045A0001092F8021092F9021092FA021092FB0295
:1045B00060E084E090E00E94BE3360E085E090E03F
:1045C0000E94BE3360E086E090E00E94BE336FEF51
:1045D00087E090E00E94BE3340E050E0BA0188E0FE
:1045E00090E00E94D03360E08DE090E00E94BE3306
:1045F0000C94B9220C94C022FC01329680912001C7
:10460000882331F080919B0387FF02C09EE101C0A7
:1046100096E080E0915028F021912223D9F38F5F1A
:10462000F9CF08959C01FC0132969FEF80E0419103
:10463000461789F09F3F19F4411101C0982F8F5FF1
:104640008630A9F79F3F39F0F901E90FF11D97FD79
:10465000FA95628308950895FC01329608962081A8
:10466000261301C010823196E817F907C1F70895A3
:10467000262F2695269526952E3168F4FC01E20F0B
:10468000F11D677021E030E001C0220F6A95EAF762
:104690008281282B22830895262F269526952695FC
:1046A0002E3170F4FC01E20FF11D677021E030E063
:1046B00001C0220F6A95EAF7209582812823228380
:1046C000089520912001222329F020919B0327FDAA
:1046D0000C9438230C94122320912001222329F0DA
:1046E00020919B0327FD0C944C230C942C232091A8
:1046F0002001FC013296222331F080919B0387FF39
:1047000002C08EE101C086E0DF011D928A95E9F7C3
:10471000089508950C9489230E948A238091A1030F
:10472000843049F11092220320E488E190E00FB632
:10473000F894A895809360000FBE2093600080E0FD
:104740000E9465080E948A2383B7817F846083BFAB
:1047500083B7816083BF7894889583B78E7F83BF4A
:104760000FB6F894A89580916000886180936000EE
:10477000109260000FBE08950895CF930E94CB045D
:104780000E941B050E94BC23C0E08C2F0E9489055B
:10479000811104C0CF5FCE30C1F701C081E0CF915D
:1047A000089508950C94D1230E94FC1B0E94C71504
:1047B0000E9465080C94D2231F920F920FB60F929D
:1047C00011248F939F93AF93BF9380912203811104
:1047D00013C08091970390919803A0919903B09191
:1047E0009A034196A11DB11D80939703909398035E
:1047F000A0939903B0939A03BF91AF919F918F912A
:104800000F900FBE0F901F90189582E084BD93E02B
:1048100095BD9AEF97BD80936E0008952FB7F894D9
:104820008091970390919803A0919903B0919A0376
:104830002FBF0895CF92DF92EF92FF920F931F93B5
:104840002FB7F89440919703509198036091990382
:1048500070919A032FBF6A017B01EE24FF248C0123
:1048600020E030E0C016D106E206F30610F4415015
:1048700051099A01281B390BC9011F910F91FF9013
:10488000EF90DF90CF90089578941F920F920FB61B
:104890000F9211248F939F93AF93BF9380919703AF
:1048A00090919803A0919903B0919A030196A11D4C
:1048B000B11D8093970390939803A0939903B093AD
:1048C0009A03BF91AF919F918F910F900FBE0F9060
:1048D0001F901895F89481E08093E00080E2809327
:1048E000D800E9ECF0E010828FE19EE40197F1F747
:1048F00000C000001DBA109268001CBC10BE1FBA98
:1049000010927A0010926E0010926F001092710057
:10491000109272001082ECEBF0E0108214B817B81D
:104920001AB81DB810BA108215B818B81BB81EB83E
:1049300011BA0C94003F08950E948C22811102C08C
:104940000E94FA220E949722809321030E949F22B4
:1049500090E090939C0380939B030E949B22682F7E
:1049600070E080E090E00C94D41F8091260380FFDB
:104970000BC06091140185E0689FB001112475950A
:104980006795759567952BC081FF09C060911401EB
:1049900085E0689FB00111247595679520C082FF5E
:1049A00007C06091140185E0689FB001112417C011
:1049B000909127039923D1F060911301961788F7FE
:1049C0002091140185E0289F90011124929FA0015D
:1049D000939F500D112470E0CA010E948333603808
:1049E000710540F46115710539F002C065E070E0B1
:1049F000862F08958FE7089581E00895809126031A
:104A000080FF08C06091120170E0759567957595FB
:104A1000679521C081FF06C06091120170E0759515
:104A2000679519C082FF04C06091120170E010C048
:104A3000909127039923C1F0609111019617A0F777
:104A400080911201899FC001112470E00E9483337C
:104A50006038710528F46115710521F0862F0895DD
:104A60008FE7089581E0089561E070E0F4CF803F22
:104A700021F40E94B524819504C0813F29F40E944D
:104A8000B52480932B030895823F21F40E94B5241E
:104A9000819504C0833F29F40E94B52480932A03A2
:104AA0000895893F19F40E94FE2405C08A3F31F41D
:104AB0000E94FE24819580932C0308958B3F21F45E
:104AC0000E94FE24819504C08C3F29F40E94FE249C
:104AD00080932D030895843F21F480912903816000
:104AE00017C0853F21F480912903826011C0863F61
:104AF00021F48091290384600BC0873F21F48091C9
:104B00002903886005C0883F31F4809129038061C2
:104B10008093290308958D3F21F4809126038160BD
:104B20000BC08E3F21F480912603826005C08F3F29
:104B300029F4809126038460809326030895803FA2
:104B400039F480912B0387FF6CC010922B0369C04E
:104B5000813F29F480912B031816BCF362C0909119
:104B60002A03823F29F497FF5CC010922A0359C0A0
:104B7000833F19F41916CCF354C0893F41F4809156
:104B80002C0318160CF04DC010922C034AC08A3F1B
:104B900029F480912C0387FF44C0F6CF8B3F39F472
:104BA00080912D0387FF3DC010922D033AC08C3FAA
:104BB00029F480912D031816BCF333C0843F21F4EF
:104BC000809129038E7F17C0853F21F480912903AE
:104BD0008D7F11C0863F21F4809129038B7F0BC00C
:104BE000873F21F480912903877F05C0883F31F4F6
:104BF000809129038F7E8093290313C08D3F21F478
:104C0000809126038E7F0BC08E3F21F48091260376
:104C10008D7F05C08F3F29F4809126038B7F809381
:104C2000260380912A0381110EC080912B038111EC
:104C30000AC080912C03811106C080912D0381113F
:104C400002C010922703089588E293E00E94ED15B8
:104C50000E940E24909324038093230308951F93AE
:104C6000CF93DF9380912303909124030E941A2411
:104C7000AC0190912703992321F02091150130E098
:104C800006C0209125038AE0289F90011124421735
:104C9000530708F47BC080912A03C0912B03D09165
:104CA0002C0310912D03811107C0C1116BC0D111CC
:104CB00069C0111167C06AC09F3F19F09F5F909350
:104CC0002703181624F40E94B52480932A038091A8
:104CD0002A0387FF05C00E94B524819580932A038B
:104CE0001C1624F40E94B52480932B0380912B037F
:104CF00087FF05C00E94B524819580932B033091D6
:104D00002A033323E1F020912B032223C1F045EB4A
:104D10003403C0011124892F990F990B009709F4CE
:104D200081E080932A0335EB2303C0011124892FEE
:104D3000990F990B009709F481E080932B031D16BE
:104D400024F40E94FE2480932C0380912C0387FF7F
:104D500005C00E94FE24819580932C03111624F433
:104D60000E94FE2480932D0380912D0387FF05C0B0
:104D70000E94FE24819580932D03DF91CF911F9196
:104D80000C9424269F3F09F099CFA1CFDF91CF91BA
:104D90001F910895E8E2F3E086E0DF011D928A9515
:104DA000E9F710922703109226030895833081F1CA
:104DB00028F4813059F08230D1F00895853009F41B
:104DC00049C0B8F1863009F456C008958091250392
:104DD000262F30E0280F311D2F3F310524F4680FB6
:104DE0006093250308958FEF8093250308958091A4
:104DF0001501262F30E0280F311D2F3F310524F4F7
:104E0000680F6093150108958FEF80931501089541
:104E100080911401262F30E0280F311D2F3F3105DE
:104E200024F4680F6093140108958FEF80931401A8
:104E3000089580911301262F30E0280F311D2F3F58
:104E4000310524F4680F6093130108958FEF809368
:104E50001301089580911201262F30E0280F311D93
:104E60002F3F310524F4680F6093120108958FEFEE
:104E700080931201089580911101262F30E0280FB0
:104E8000311D2F3F310524F4680F609311010895FF
:104E90008FEF809311010895833011F128F4813050
:104EA00049F0823091F00895853081F120F186300B
:104EB000C1F1089580912503681720F4861B809323
:104EC0002503089510922503089580911501681710
:104ED00020F4861B80931501089510921501089502
:104EE00080911401681720F4861B809314010895A3
:104EF00010921401089580911301681720F4861B05
:104F00008093130108951092130108958091120166
:104F1000681720F4861B80931201089510921201E5
:104F2000089580911101681720F4861B8093110168
:104F300008951092110108950F931F93873208F07E
:104F40004DC08E3108F093C0803109F47DC008F562
:104F5000873009F46BC068F4863009F0A3C08091F3
:104F60002103817F8E7F8093210381E080932F0333
:104F70009AC08B3009F48FC08E3009F093C08091B5
:104F8000210382FB222720F991E0922790FB82F9EE
:104F900064C0863109F47FC088F4813109F082C091
:104FA0000E94FC1B80919B0387FB222720F991E044
:104FB000922790FB87F980939B036DC0893109F498
:104FC0006AC08B3109F06EC08091210381FB2227DA
:104FD00020F991E0922790FB81F93FC0883309F4D2
:104FE0005AC050F4893209F458C0853309F455C0C9
:104FF000873209F452C056C0833409F44EC028F4F5
:105000008A3308F44FC0895333C0883409F04AC04A
:105010000E94FC1B0FEF13ED20E3015010402040D5
:10502000E1F700C000000E946A2435C0809121038E
:10503000982F9095917090FB80F9809321039111A6
:105040002AC0897F877F10C08091210383FB22279C
:1050500020F991E0922790FB83F980932103992313
:10506000D1F08091210381608093210314C08D5180
:1050700041E050E060E070E08A019B0104C0000F55
:10508000111F221F331F8A95D2F7C901B8010E9450
:10509000D41F0E94FC1B81E006C061E070E080E04C
:1050A00090E0F5CF80E01F910F91089580E0089582
:1050B00080E008958E518A3030F4E82FF0E0E75315
:1050C000FE4F8081089580E00895CF93C82F80918E
:1050D0002F03813079F018F08230E9F185C0E0913A
:1050E0000F01F09110018081813169F0823209F065
:1050F0007DC009C0E0910F01F091100180818131E4
:1051000011F0823261F48C2F0E945628811104C064
:105110008C2F0E949C271DC081E090E01AC08C2F2C
:105120000E945828811114C0C43179F048F4CB3062
:1051300079F0C03109F05EC082E080932F0308C08F
:10514000C93219F0C83321F055C010922F0352C054
:1051500081E0817051C0C93279F108F5C43161F143
:10516000A0F4C73009F044C01092250384E1809375
:105170001501C09314018CE38093130188E08093A0
:10518000120188E28093110133C082EE8C0F8630C9
:1051900078F58C2F0E945A2880932E0329C0CE3494
:1051A000E9F020F4CB3421F56AE013C0C13579F081
:1051B000C235F1F461E00DC080912E03882319F00F
:1051C00010922E0315C081E080932F0315C061E07B
:1051D00006C080912E030E94D6260AC06AE0809104
:1051E0002E030E944C2704C010922F0380E004C0BD
:1051F00081E002C080E0ADCFCF910895809150034F
:1052000008950F931F93CF93DF9300D01F92CDB7D4
:10521000DEB78C010E946D2B823011F0843021F5B5
:1052200084E089831B830A8382E08093E9008FEF07
:105230009091E800815095FD06C095ED9A95F1F7A3
:1052400000008111F5CF8091E80085FF0DC040E09E
:1052500050E063E070E0CE0101960E948A2B8091BD
:10526000E8008E778093E8000F900F900F90DF9109
:10527000CF911F910F910895CF93DF9300D01F928C
:10528000CDB7DEB72091A103243031F523E0298387
:10529000805891099B838A8382E08093E9008FEF95
:1052A0009091E800815095FD06C095ED9A95F1F733
:1052B00000008111F5CF8091E80085FF0DC040E02E
:1052C00050E063E070E0CE0101960E948A2B80914D
:1052D000E8008E778093E8000F900F900F90DF9199
:1052E000CF910895CF93DF93EC010E946D2B823014
:1052F00011F08430F9F482E08093E9009FEF80910F
:10530000E800915085FD06C085ED8A95F1F7000013
:105310009111F5CF8091E80085FF0CC040E050E08E
:1053200066E070E0CE010E948A2B8091E8008E77C3
:105330008093E800DF91CF910895CF93DF93EC0144
:105340000E946D2B823011F08430D9F580912001BC
:10535000882339F080919B0387FF03C060E282E0DD
:1053600002C068E081E08093E9008FEF9091E8004F
:10537000815095FD06C095ED9A95F1F700008111D9
:10538000F5CF8091E80085FF1CC08091200181113C
:1053900005C040E050E068E070E003C070E040E02D
:1053A00050E0CE010E948A2B8091E8008E77809396
:1053B000E80080E2FE01A0E3B3E001900D928A953F
:1053C000E1F7DF91CF9108958091A003811109C089
:1053D0000E941F2D0E947C2D8091E20084608093AA
:1053E000E20008951092A0030895089508950C9482
:1053F000D42342E061EC81E00E94992C42E261EC0E
:1054000082E00C94992C8091A303833009F45CC052
:1054100030F4813071F0823009F495C008958A30FB
:1054200009F481C08B3009F467C0893009F0A3C04A
:1054300020C08091A203813A09F09DC08091E800CC
:10544000877F8093E8008091A6039091A703892B22
:1054500021F460E280E393E003C060E080E090E04C
:1054600070E00E94D52B8091E8008B778093E80054
:1054700008958091A203813209F07DC08091A60336
:105480009091A703029708F076C08091E800877F8B
:105490008093E8008091E80082FD05C08091A1031F
:1054A0008111F8CF68C080912001882329F0809174
:1054B000F1008B7F813021F48091F10080935003C3
:1054C0008091E8008B7753C08091A203813A09F064
:1054D00052C08091A6039091A703892B09F04BC07D
:1054E0008091E800877F8093E8008091E80080FF4A
:1054F000FCCF8091200136C08091A2038132D9F582
:105500008091A6039091A703892BA9F58091E800CB
:10551000877F8093E8000E94CE2C8091A403809323
:1055200020010C94FC1B8091A203813221F5809113
:10553000E800877F8093E8000E94CE2C8091A5032D
:105540008093510308958091A203813AA1F4809140
:10555000E800877F8093E8008091E80080FFFCCF1F
:10556000809151038093F1008091E8008E778093C1
:10557000E8000C94CE2C089584B7877F84BF0FB6C3
:10558000F894A895809160008861809360001092E3
:1055900060000FBE80E880936100109261000E945D
:1055A0002F160E941F2D0E947C2D8091E2008460A6
:1055B0008093E20078940E940B300E94351686E1B9
:1055C00091E00E94C2158091A103853069F40E9488
:1055D0008C2380919F038823B1F30E94BD238823ED
:1055E00091F30E94742BEFCF0E943D160E94BC14D1
:1055F000EACF0C94FB2A292F332723303105C9F039
:1056000064F42130310581F02230310509F04CC0BD
:105610008BE390E027E436E04BC02132310521F1E5
:105620002232310589F140C082E190E022E836E083
:105630003FC099278130910571F02CF4892BA1F599
:10564000E3E4F6E00DC08230910541F0039761F587
:10565000EDE0F6E005C0EBE2F6E002C0E3E1F6E0E3
:10566000849190E09F0124C06115710541F0613083
:105670007105D1F489E090E022E736E019C089E0B5
:1056800090E029E536E014C06115710541F0613004
:10569000710551F480EC90E024E936E009C080E423
:1056A00090E024E537E004C080E090E020E030E0C6
:1056B000FA013183208308950895CF93C82F0E9463
:1056C0005C2BC0935203CF9108958091A103843045
:1056D00011F081E0089582E00895809152038111D4
:1056E00002C00C94652B089580E189BD82E189BDDB
:1056F00009B400FEFDCF8091D8008F7D8093D80043
:105700008091E00082608093E0008091E00081FD64
:10571000FCCF0895CF92DF92EF92FF920F931F93E9
:10572000CF93DF93EC018B016A010E94ED2C811174
:1057300033C0C114D10439F0F60180819181081B76
:10574000190BC80FD91FE12CF12C0115110519F106
:105750008091E80085FD16C08091E8008E778093E7
:10576000E800C114D10449F0F60180819181E80E6E
:10577000F91EF182E08285E00FC00E94ED2C8823A3
:1057800021F30AC089918093F10001501109FFEFC4
:10579000EF1AFF0ADACF80E0DF91CF911F910F91CE
:1057A000FF90EF90DF90CF9008952091A803309163
:1057B000A9032617370748F06115710539F42091C0
:1057C000E8002E772093E80001C0B90140E06115A0
:1057D0007105A9F12091A103222309F443C02530CA
:1057E00009F442C02091E80023FD40C02091E80068
:1057F00022FD32C02091E80020FFE9CF4091F30064
:105800002091F20030E0342BFC01CF0161157105CD
:1058100059F02830310540F481918093F1006150B6
:1058200071092F5F3F4FF1CF41E02830310509F07A
:1058300040E02091E8002E772093E800C8CF411186
:10584000C9CF0AC08091A103882361F0853061F03F
:105850008091E80083FD0AC08091E80082FFF2CFCA
:1058600080E0089582E0089583E0089581E008953E
:105870002091A8033091A9032617370748F0611536
:10588000710539F42091E8002E772093E80001C0DB
:10589000B901FC0120E06115710591F18091A1032E
:1058A000882309F440C0853009F43FC08091E800A6
:1058B00083FD3DC08091E80082FD2FC08091E8000B
:1058C00080FFE9CF2091F3008091F20090E0922BCD
:1058D0006115710559F08830910540F424912093A9
:1058E000F1003196615071090196F2CF21E00897DD
:1058F00009F020E08091E8008E778093E800CBCF1C
:105900002111CCCF0AC08091A103882361F085309A
:1059100061F08091E80083FD0AC08091E80082FF79
:10592000F2CF80E0089582E0089583E0089581E059
:105930000895982F973058F59093E900981739F00B
:105940007091EC002091ED005091F00003C0242FE5
:10595000762F50E021FF19C03091EB003E7F30934D
:10596000EB003091ED003D7F3093ED003091EB0086
:1059700031603093EB007093EC002093ED00509376
:10598000F0002091EE0027FF07C09F5FD3CF8F70FC
:105990008093E90081E0089580E008958091A2035A
:1059A00087FF11C08091E80082FD05C08091A103AE
:1059B0008111F8CF11C08091E8008B770BC08091E6
:1059C000A103882349F08091E80080FFF8CF8091FF
:1059D000E8008E778093E80008952091E4003091EC
:1059E000E50095E64091EC00842F817040FF22C0D5
:1059F0008091E80080FD1CC08091A103882391F074
:105A0000853091F08091EB0085FD10C04091E4005D
:105A10005091E5004217530729F39A01915011F76D
:105A200084E0089582E0089583E0089581E0089578
:105A300080E008954091E80042FFDECF08950E9483
:105A40008D2D0E94952DE0EEF0E0808181608083B5
:105A5000E8EDF0E080818F77808319BCA7EDB0E09E
:105A60008C918E7F8C9380818F7E80831092A00397
:105A700008950F931F93CF93DF930E948D2D0E9463
:105A8000952DC8EDD0E088818F77888388818068E4
:105A9000888388818F7D888319BC1092A10310921E
:105AA0009D0310929F0310929E0300EE10E0F801F8
:105AB00080818B7F808388818160888342E060E081
:105AC00080E00E94992CE1EEF0E080818E7F80835F
:105AD000E2EEF0E080818160808380818860808355
