:100000000C94C8030C94E5030C94E5030C94E503ED
:100010000C94E5030C94E5030C94E5030C94E503C0
:100020000C94E5030C94E5030C944D210C94892069
:100030000C94441A0C94E5030C94E5030C94E5032A
:100040000C94E5030C94E5030C94E5030C94E50390
:100050000C94E5030C94D2190C94E5030C94E5037D
:100060000C94E5030C94E5030C94E5030C94E50370
:100070000C94E5030C94E5030C94E5030C94E50360
:100080000C94E5030C94E5030C94E5030C94E50350
:100090000C94E5030C94E5030C94E5030C94E50340
:1000A0000C94E5030C94E5030C94E50374057705C3
:1000B0007A057D058005830586052E1130113B11DB
:1000C00032113411361138113A113D113F114111DD
:1000D0004C1143114511471149114B114E112A1270
:1000E0002A1268126812A412C412A614FF1406136E
:1000F000FF1403140314101410141014101410140B
:1001000010141014101410141014101410141014CF
:10011000101410141014211449144E1455146D1495
:100120007C1C811C8B1C7F1C841C891C871C9A1EB8
:10013000C11E6120C11E6120091F2C1F61202A20C1
:100140003D206E266E2681268126772681268126F1
:1001500081266E266E267C26812681267C260763D4
:100160004236B79BD8A71A39685618AEBAAB558C29
:100170001D3CB7CC5763BD6DEDFD753EF617723172
:10018000BF000000803F05A84CCDB2D44EB9383630
:10019000A9020C50B9918688083CA6AAAA2ABE00DA
:1001A0000000803F00000000000101010101010189
:1001B000010102020202020202020203030303031C
:1001C00003030304040404040405050505050606E9
:1001D00006060607070707080808080909090A0AA2
:1001E0000A0A0B0B0B0C0C0C0D0D0D0E0E0F0F0F46
:1001F00010101111111212131314141515161617CD
:1002000017181819191A1A1B1C1C1D1D1E1F1F2038
:10021000202122222324252526272728292A2B2B83
:100220002C2D2E2F2F3031323334353636373839A6
:100230003A3B3C3D3E3F4041424344464748494AA1
:100240004B4C4D4F50515253555657585A5B5C5E6C
:100250005F606263646667696A6C6D6E7071737407
:100260007678797B7C7E8081838486888A8B8D8F6B
:1002700091929496989A9B9D9FA1A3A5A7A9ABAD97
:10028000AFB1B3B5B7B9BBBDBFC1C4C6C8CACCCF87
:10029000D1D3D6D8DADCDFE1E4E6E8EBEDF0F2F535
:1002A000F7FAFCFF6801F000B40078005A0029005A
:1002B0002B000044E100354100001E001400040042
:1002C0001D0034004D001F001A0015001B000063C4
:1002D0002A00200009001600060000642C002100FE
:1002E0001300170007002D414A00220005000A00F4
:1002F000190000004C0002532900000035020000E4
:10030000035303532E00000033000000E2002300DB
:100310000D000E0010000000296124000F001100E4
:100320000B00E2004B002500180008003600286290
:10033000E00026001C000C0037002F0028002700DA
:1003400033001200380030004E002D0031003468B8
:10035000E500015100002900010001000100010039
:1003600000003A001E0220022202010001003B00B0
:100370001F0221022302010001003C002F0226027D
:100380002F00010001003D00300227023000010073
:1003900001003E003102350035020000010001007D
:1003A0000100000001000000010001000100000048
:1003B0000100000001003F001E0250002402000066
:1003C00001004000570051005500010001004100AC
:1003D0002D0052002E0001000100420021024F00BA
:1003E00023022700010043002002220231002E00D8
:1003F0000100440045003402200201000000010019
:1004000001000100010001000000010001000100E5
:100410000100010001000100F900F20001000100EB
:1004200001000100F000F1000100F400F5000100FE
:10043000FA00F3000100B600010001000100010014
:1004400001000000010001000100000001000000A7
:100450000100010001000000010000000100010096
:100460000100010001000000010001000100010085
:100470000100010001000100010001000100010074
:10048000F400010001000100010001000100010071
:100490000100010001000100010001000100010054
:1004A0000100010000000100010001000100010045
:1004B00000000100140004001D0001000100010003
:1004C0001A0016001B000100CA5C010008000700AA
:1004D00006000100C95C01001500090019000100B7
:1004E0000100010017000A000500000001000100E2
:1004F00001000000010000000100010001000000F7
:1005000001000000C35C01001C000B001100000092
:10051000F05C010018000D00100001000100010056
:100520000C000E0001000100C55C010012000F006C
:1005300001000100C65C010013003300010001004E
:100540000100010001003400010001000000010071
:100550000100010001000100000001000100010094
:100560000100010001000100010001000100010083
:10057000010001002F0226022F00010001000100EE
:1005800030022702300001000100010001000100DB
:100590000100000001000100010000000100000056
:1005A0000100010001000000010000000100010045
:1005B00057005500560000000100010024002100F2
:1005C0001E00270001000100250022001F0001007D
:1005D00001000100260023002000010001000100AD
:1005E00054002E002402010001000100010001005E
:1005F00001000100000005010902A10185020901B5
:10060000A1000509190129051500250195057501A8
:1006100081029501750381010501093009311581B8
:10062000257F95027508810609381581257F95017A
:1006300075088106050C0A38021581257F9501751C
:10064000088106C0C005010980A1018503160100CB
:100650002603001A81002A8300751095018100C0CD
:10066000050C0901A1018504160100269C021A014E
:10067000002A9C02751095018100C005010906A1A0
:10068000018505050719E029E7150025019508757D
:100690000181020508190129059505750191029549
:1006A00001750391010507190029EF150025019532
:1006B000F075018102C005010906A101050719E0D5
:1006C00029E7150025019508750181029501750836
:1006D000810105081901290595057501910295010A
:1006E000750391010507190029FF150026FF0095E4
:1006F0000675088100C009023B00020100A0FA094A
:100700000400000103010100092111010001224040
:10071000000705810308000A090401000103000025
:100720000009211101000122C000070582032000F9
:100730000A1201100100000008EDFE07130100017C
:100740000203010403300000001603450072006735
:10075000006F0044006F007800200045005A000040
:100760000016034500720067006F0044006F0078B8
:1007700000200045005A0000000403090400047F23
:100780003F1F643214643214783C1E1E140A0500A4
:1007900011241FBECFEFDAE0DEBFCDBF11E0A0E035
:1007A000B1E0ECE2FEE502C005900D92AE3EB1076D
:1007B000D9F723E0AEEEB1E001C01D92A137B20738
:1007C000E1F70E941D230C94142F0C94000008954F
:1007D000EF92FF920F931F93CF93DF93E90166236C
:1007E00009F44BC0242F30E0EFEFF0E0E61BF109F5
:1007F000B901E69F9001E79F300DF69F300D11245F
:10080000232F8B01031B11095CE3E52EF12CB701AB
:100810000E94AC2DFB01BC01069FC001079F900DFB
:10082000169F900D1124B7010E94AC2DE230F10506
:10083000B1F040F4309779F0319711F5832F242FE0
:10084000461B21C0E430F105A1F068F03597C1F4F2
:10085000842F861B18C0832F262F230F14C0862FAA
:10086000830FE42F03C0E42FE61B842F432F2E2F8A
:100870000AC0842F462F430F06C0842F242F03C0A5
:1008800080E020E040E0E42FF0E0EC55FE4F4491A2
:10089000E22FF0E0EC55FE4F9491E82FF0E0EC559C
:1008A000FE4FE49149839883EA83DF91CF911F91B2
:1008B0000F91FF90EF9008959091300392FF0DC03B
:1008C000282F2871283019F4877F846006C0282FCC
:1008D0002471243011F48B7F886093FF0DC0282F82
:1008E0002871283119F4877E846106C0282F24716D
:1008F000243111F48B7E886194FD877E08958823CE
:1009000019F05198599A02C0519A59985098589A8A
:1009100095E09A95F1F70000509A589895E09A95CD
:10092000F1F70000882311F0519A599885E08A95D3
:10093000F1F700000895CF93DF93D82FC8E08D2FF3
:1009400080780E947F04DD0FC150C9F780E00E94CB
:100950007F0485E08A95F1F7000085E08A95F1F73C
:10096000000080E0DF91CF910895AF92BF92CF92C7
:10097000DF92EF92FF920F931F93CF93DF931F921B
:10098000CDB7DEB7F82E8B01CFB6D090BC00F8946F
:100990002091BC002B7F2093BC002BB12C7F2BB966
:1009A0005098589A5198599A85E08A95F1F7000025
:1009B0002AB12C7F2AB9E5E0EA95F1F70000519AB7
:1009C0005998F5E0FA95F1F70000509A589885E0AB
:1009D0008A95F1F7000084E899830E949B04AF2C6C
:1009E0009981B92E000F111F000F111F0A0D1B1D39
:1009F0007501E016F10631F0F70181917F010E9447
:100A00009B04F7CF5098589AF5E0FA95F1F700005B
:100A10005198599A85E08A95F1F70000CFBED0929F
:100A2000BC00579A8BB18F779BB190682FB7F89421
:100A3000A016B10699F0F50131915F0148E09BB92C
:100A4000000000C037FF8BB9330F000000C000C0AA
:100A500000C08BB900C04A9591F7EACF2FBF0F9025
:100A6000DF91CF911F910F91FF90EF90DF90CF908A
:100A7000BF90AF900895CF93E82F873058F58091BD
:100A8000140190911501892B09F042C0CE2F80E40A
:100A90000E94331D9093150180931401892BB1F4AA
:100AA00082E10E940C1D9093150180931401892B03
:100AB00069F481E090E001C0880FCA95EAF780955B
:100AC0000E940C1D909315018093140184E980937A
:100AD000BC001EC090E0FC013797E730F105C0F480
:100AE000EA5AFF4F0C94D42D209A289811C0219ACD
:100AF00029980EC0229A2A980BC0239A2B9808C0D6
:100B0000529A5A9805C0539A5B9802C03E9A4698EA
:100B1000CF910895CF93DF93873008F047C080913D
:100B2000140190911501892B09F049C080E40E94BD
:100B3000331D9093150180931401892B11F080E0EF
:100B400031C083E10E940C1D909315018093140124
:100B5000892BA9F781E40E94331D9093150180939E
:100B60001401892B61F784E88093BC000E94221A4B
:100B7000EC019091BC0097FD0EC00E94221A8C1BC4
:100B80009D0B84369105A8F38EEF9FEF909315018E
:100B900080931401D4CF8091BB00809510921501F1
:100BA0001092140194E99093BC000AC09FB18FB1D8
:100BB000807F869586959370892B809501C080E013
:100BC000DF91CF910895EF92FF920F931F93CF93F0
:100BD000DF93CDB7DEB767970FB6F894DEBF0FBED1
:100BE000CDBF4B8B5C8B6D8B7E8B8F8B0E891F8962
:100BF00001151105C1F15F3F11F44F3FA1F1E42E42
:100C0000F12CA1E0B0E0042E01C0AA0F0A94EAF78B
:100C1000852F90E0662319F020916C0306C09C019B
:100C20002C5C3D4FF90120812A232223A9F046E0C4
:100C3000489F9001499F300D1124F701E20FF31FE7
:100C4000EE0FFF1FEB5BFE4F40815181FC01EC5C1E
:100C5000FD4F9081A92B06C0FC01EC5CFD4FA095D7
:100C60008081A823A08386E0FE013D96DF01982FB6
:100C70001D929A95E9F74D875E876F87198B088BD0
:100C8000DE01179601900D928A95E1F7CE01079645
:100C90000E948526811137C086E0FE013796DE016D
:100CA000119601900D928A95E1F7FF81E8856A859A
:100CB0007B856115710539F1EF3F11F4FF3F19F1A3
:100CC0002091720230E0C901019687709927409106
:100CD000A30250E08417950779F1F983EA837D83B5
:100CE0006C8396E0929FD001939FB00D1124AD5874
:100CF000BD4FFE01319601900D929A95E1F78093D8
:100D000072020E94021D16E08091A302909172026D
:100D1000891711F1189FC00111248D589D4F0E9411
:100D200085268823C9F08091A30290E00196877000
:100D300099278093A302E8CF1092ED020E946A28BF
:100D4000109272021092A302ECE6F2E086E0DF015C
:100D50001D928A95E9F7D7CF67960FB6F894DEBF54
:100D60000FBECDBFDF91CF911F910F91FF90EF90FC
:100D7000089520913202309133028217930771F067
:100D80009093330280933202E0913303F091340365
:100D9000309721F00084F185E02D09940895209189
:100DA0003002309131028217930771F09093310233
:100DB00080933002E0913303F0913403309721F0B7
:100DC0000680F781E02D09940895E0913303F091B6
:100DD0003403309721F00190F081E02D099480E0F8
:100DE00008958091630380FF06C06FE070E084EF98
:100DF00091E00C94B50480E090E0FC01EC50FE4FD3
:100E000011821082128204968C339105B1F7EDCFD6
:100E1000EF92FF920F931F93CF93DF937C01C4EF68
:100E2000D1E000E010E0F7018481309163039091FC
:100E30006403073011051CF4882381F002C081117E
:100E40000DC0832F881F8827881F592F550F97FBA8
:100E5000992790F99E01409166030BC0832F881F4C
:100E60008827881F592F550F97FB992790F99E01C6
:100E700040E060916503852B0E94E8030F5F1F4FE0
:100E800024960F30110579F60E94F106F70184814E
:100E900090E00196817099278483DF91CF911F9113
:100EA0000F91FF90EF900895EF92FF920F931F9391
:100EB000CF93DF93EC012C813D812F5F3F4F217059
:100EC00033273D832C8384EFE82E81E0F82E10E059
:100ED00008E7812F8695EC81FD81E80FF11DCF0198
:100EE0008170992797014091660360916503FC0129
:100EF0000E9FC0010F9F900D11240E94E8031F5FF9
:100F0000F4E0EF0EF11C1F3021F7DF91CF911F911C
:100F10000F91FF90EF900C94F1060F931F93CF93D6
:100F2000DF9380E090E0FC01EC50FE4F11821082D4
:100F3000128204968C339105B1F7C0E0D0E00FE047
:100F400010E0CE01B8010E94C02DFC018091F20199
:100F5000082E000C990BEE0FFF1FEE0FFF1FC81796
:100F6000D907FCF080911201082E000C990B8C1708
:100F70009D07BCF09F012C503E4F80916303881F5A
:100F80008827881F90916403592F550F97FB992745
:100F900090F94091660360916503852B0E94E803F8
:100FA00005C0EC50FE4F1182108212822196CF3084
:100FB000D10539F60E94F106809111019091F2015C
:100FC000980F9093F20120911201280F20931201A3
:100FD000121614F49E301CF0819580931101DF915C
:100FE000CF911F910F910895AF92BF92CF92DF9250
:100FF000EF92FF920F931F93CF93DF93FC018281B7
:1010000080FF03C0BB24BA9402C0BB24B39424EF76
:10101000E22E21E0F22E06EF11E0C0E0D0E0F80170
:1010200031971082F7011082F801108294E0C92EE6
:10103000D12CA12C8091F1018A0D87FD815F082EB2
:10104000000C990BC817D907E9F4809166038C9DB1
:10105000A0018D9D500D11245595479555954795A7
:1010600080916303881F8827881F90916403592FFC
:10107000550F97FB992790F9970160916503852B90
:101080000E94E803AB0CF1E0CF1AD10899F6219643
:1010900084E0E80EF11C0C5F1F4FCF30D10509F042
:1010A000BECF0E94F1068091F10191E0B91206C015
:1010B000811102C08EE007C0815005C090E001960A
:1010C000BE010E94C02D8093F101DF91CF911F914D
:1010D0000F91FF90EF90DF90CF90BF90AF90089569
:1010E000CF92DF92EF92FF920F931F93CF93DF93F4
:1010F000EC0184EFE82E81E0F82E00E010E098E6A5
:10110000C92EDD24D3948C819D81800F911FB6015F
:101110000E94C02D970140916603609165030E9473
:10112000E803085E1F4F84E0E80EF11C083681E0FA
:10113000180749F70E94F1068A812C813D8180FFC2
:1011400006C0C9010196B8010E94C02D05C0121643
:1011500013062CF087E691E09D838C8304C0215018
:1011600031093D832C83DF91CF911F910F91FF9027
:10117000EF90DF90CF9008959091630390FF0FC0A0
:1011800020E030E0F901EC50FE4F81836083428320
:101190002C5F3F4F2C333105A9F70C94F1060895CD
:1011A0000F931F93CF93DF9300D000D0CDB7DEB75E
:1011B0008C018091F30181110CC09E012F5F3F4F84
:1011C0004FEF6FEF80E090E00E94E8038A81809308
:1011D000F301F8018481813051F028F0823061F40C
:1011E0004091F3010AC08091F30140E007C0609193
:1011F000F30140E080E003C040E080E060E00E9456
:10120000BC08F801248130E0C901019663E070E078
:101210000E94C02D84830F900F900F900F90DF914C
:10122000CF911F910F910895CF93DF9300D000D0FD
:10123000CDB7DEB72091630320FF0AC09E012F5F68
:101240003F4F0E94E8034B8169818A810E94BC085C
:101250000F900F900F900F90DF91CF910895CF9343
:10126000DF93EC01E3E6F3E0438162818C819D81B1
:101270000E9414098C819D81019668E671E00E94AC
:10128000C02D9D838C83DF91CF910895CF93DF9301
:10129000EC016C8170E080E090E00E94AD2B20E0DA
:1012A00030E04FE753E40E94D02A2BED3FE049E4C1
:1012B00050E40E94D62C0E94432D0E944A2B2BE41E
:1012C0003AE34EE25FE30E94632A20EF3BEF48EDF2
:1012D00052E40E94D62C0E947C2B462FE3E6F3E0DA
:1012E0008081881F8827881F90916403292F220FEF
:1012F00097FB992790F96281822B0E9414092C8117
:1013000030E02F5F3F4F2C83DF91CF910895809184
:10131000630380FF03C086958F73089580E008956E
:1013200080916303282F26952F7330E02115310516
:1013300019F48178826005C02532310524F0817866
:1013400088648093630330916303432F441F4427D1
:10135000441F20916403522F550F852F842B27FBA8
:10136000992790F9893641E094077CF068E671E0AE
:101370000E94C02D80FB37F9309363038695207857
:10138000822B90FB87F9809364030895CF93DF93BA
:1013900000D000D0CDB7DEB7AB01BC0149835A8382
:1013A0006B837C830E94900949815A816B817C8187
:1013B00088E090E00F900F900F900F90DF91CF9109
:1013C0000C94412A5F926F927F928F929F92AF927C
:1013D000BF92CF92DF92EF92FF920F931F93CF9322
:1013E000DF9300D000D0CDB7DEB78C01E62EF42E0F
:1013F000522E8091630380FF8BC0E82FE695EF7338
:10140000AE2FB0E0A05EBE4F9C9190936803282F52
:101410002E77223061F49E012F5F3F4FC8010E945A
:10142000E8034B8169818A810E94BC0851C09230D7
:1014300019F4F09066034CC0963069F4881F882731
:10144000881F90916403292F220F022F082B97FBEE
:10145000112710F93DC0993089F39931C9F5E95147
:10146000E0FD02C021E001C02FEFE695F0E0EE0FB5
:10147000FF1FEC55FD4F859194916FE070E00E9445
:10148000AC2D26034001279F900C1124580188E9B8
:10149000A81A8EEFB80A94EFC92E91E0D92E28E64B
:1014A000622E77247394C501B3010E94AC2D96017E
:1014B0004F2D6E2D0E94E803A80CB91C84E0C80EC5
:1014C000D11C80E3C81682E0D80669F70E94F106B5
:1014D0008091630300FB87F980936303902F9695B7
:1014E000809164038078892B10FB87F980936403D3
:1014F000E0926503F0926603552051F0609163031A
:101500007091640380916503909166030E94C609FF
:101510000F900F900F900F90DF91CF911F910F912F
:10152000FF90EF90DF90CF90BF90AF909F908F9003
:101530007F906F905F9008959091630390FF4AC0F1
:101540009178811102C0926007C0853210F09864D2
:1015500003C08F73880F982B90936303662351F019
:1015600060916303709164038091650390916603B9
:101570000E94C6096091630366956F7370E04BE04B
:1015800050E086E091E00E94072F892B19F010921D
:10159000690309C081E0809369030E94221A909335
:1015A0005E0380935D0381E0809360038091630319
:1015B000881F8827881F90916403392F330F97FB6A
:1015C000992790F920E04091660360916503832B91
:1015D0000C94E209089561E00C949C0A80916303E5
:1015E00086958F73815009F484E261E00C949C0A23
:1015F0008091630386958F738F5F853208F081E059
:1016000061E00C949C0AE3E6F3E083E080831092AF
:1016100064038FEF8283838314826081718182816E
:1016200093810C94C60960911E038CE090E00C94A9
:101630002F2ACF93DF9326E0729FF001112434E527
:10164000839FE00DF11D1124E60FF11DEE0FFF1F2A
:10165000E255FD4FC591D491CE01C238D10549F173
:10166000B0F4C133D10509F464C048F4C932D105DE
:1016700009F458C0CA32D10509F462C068C0C53344
:10168000D10509F448C0C933D10599F060C0C33E03
:10169000D10541F138F4C03ED10591F0C23ED105EB
:1016A000B1F055C0C63ED10521F1C73ED10561F16B
:1016B0004EC02091300320FD14C221FD12C213C27E
:1016C0002091300320FF0FC289E390E00CC22091EB
:1016D000300322FF08C28091300384FDB4C183EE41
:1016E00090E001C28091300382FFF5CF82EE90E05E
:1016F000FAC12091300323FFF6C18091300384FDAD
:10170000A2C187EE90E0EFC18091300383FFF5CF57
:1017100086EE90E0E8C12091300325FFE4C189E224
:1017200090E0E1C12091300325FFDDC185E390E029
:10173000DAC12091300326FFD6C18AE290E0D3C1FE
:101740002091300326FFCFC181E390E0CCC1C115C9
:1017500020E5D20708F047C0C11530E4D30708F0F0
:1017600034C1C83ED10518F5C03ED10508F0BBC153
:10177000C83AD10570F4C53AD10508F0B0C0C130FF
:10178000D10509F4B0C108F45EC1249708F45BC127
:10179000AAC1CF3BD10508F4ADC0C03CD10508F4C7
:1017A00052C1FE01EE0FFF1FEC5DFF4F02C1C115DC
:1017B00020E2D20760F4C11531E0D30708F093C1ED
:1017C000C03FD10508F43FC1CE0190658CC1C11561
:1017D00080E3D80708F0F0C0FE01FF70EE0FFF1F96
:1017E000EC55FE4FE6C0C11595E5D90708F044C099
:1017F000C11524E5D20708F000C1C11532E5D307B1
:1018000010F5C11581E5D80708F0E3C02C2F23702F
:1018100081E090E002C0880F991F2A95E2F79C684A
:101820009E0174E0369527957A95E1F72370922B07
:10183000EC2FEF70E695E69530E2E39FF00111247E
:101840008E2B9F2B50C18C2F86958695AE014370B1
:101850005527C115D34508F0C1C090E2899F90017A
:10186000112481E090E002C0880F991F4A95E2F7A9
:10187000822B932B9C6837C1C1152AE5D207A0F4AF
:10188000C11539E5D30708F0C6C0C11586E5D807EC
:1018900008F4B8C0C11598E5D90708F4D4C09C2F46
:1018A0008827806F906A1FC1C1152BE5D20708F405
:1018B000CAC0CE01C1153CE5D30708F4C1C090569B
:1018C0008115904208F0BFC08D2F8F710E945C047B
:1018D000FE01FF27F0628F719F01382BAFC0C53A20
:1018E000D10509F4B3C0C63AD10509F0B2C082E807
:1018F00090E4F9C0C83AD10509F4AEC0C93AD1059F
:1019000009F4ADC0CA3AD10509F4ACC0CB3AD1054F
:1019100009F4ABC0CC3AD10509F4AAC0CB3BD10540
:1019200009F4A9C0CC3BD10509F4A8C0CD3AD10532
:1019300009F4A7C0C03BD10509F4A6C0CE3AD10531
:1019400009F4A5C0CF3AD10509F4A4C0C13BD10523
:1019500009F4A3C0C23BD10509F4A2C0C33BD10521
:1019600009F4A1C0C43BD10509F4A0C0C53BD10511
:1019700009F49FC0C63BD10509F49EC0C73BD10501
:1019800009F49DC0C83BD10509F49CC0C93BD105F1
:1019900009F49BC0CD3BD10509F49AC0CE3BD105DB
:1019A00009F499C0CA3BD10509F498C080E094E4D9
:1019B0009AC08591949197C09E013327C901D3FFA6
:1019C00002C0986C90C0906C8EC0CE019F70906ADF
:1019D0008AC09C2F8827816F906A85C090E2899F7A
:1019E0009001112481E090E002C0880F991F4A9570
:1019F000E2F7822B932B9A6876C09C2F8827846FFE
:101A0000906A71C08C2F0E945C048F7190E0982FB7
:101A10008827906268C08C2F8F700E945C04FE0142
:101A200094E0F695E7959A95E1F7EF70F0E0FE2FD8
:101A3000EE27F06A8F70806E9F01282BC90153C07A
:101A40009927906650C080E090E04DC081E890E416
:101A50004AC083E890E447C082EE94E444C089EE33
:101A600094E441C08AEE94E43EC085EB94E43BC02C
:101A700086EB94E438C083EB94E435C084EB94E4C3
:101A800032C087EB94E42FC08CEC94E42CC08DEC36
:101A900094E429C083E895E426C08AE895E423C04D
:101AA00082E995E420C084E995E41DC081E296E4D2
:101AB0001AC083E296E417C084E296E414C085E27B
:101AC00096E411C086E296E40EC087E296E40BC06D
:101AD0008FE694E408C080E794E405C08AE296E4C7
:101AE00002C080EE90E0DF91CF91089580E290E017
:101AF00090931501809314018091F001811111C020
:101B00001092B9008CE08093B80081E08093F001DE
:101B10002FEF83ED90E3215080409040E1F700C02B
:101B2000000080E40E94331D9093150180931401FE
:101B3000892B09F040C080E00E940C1D9093150194
:101B400080931401892BB9F580E00E940C1D9093BD
:101B5000150180931401892B71F58FE30E940C1DF0
:101B60009093150180931401892B29F584E98093C2
:101B7000BC0080E40E94331D9093150180931401F2
:101B8000892BC9F48CE00E940C1D90931501809361
:101B90001401892B81F480E00E940C1D90931501A3
:101BA00080931401892B39F48FE30E940C1D9093CC
:101BB00015018093140184E98093BC008091140185
:101BC000089556985E9825982D9826982E982798CF
:101BD0002F988FEF90E090938900809388009093E6
:101BE0008B0080938A0090938D0080938C00259ABF
:101BF0002D9A2FEF80E792E0215080409040E1F74E
:101C000000C00000269A2E9A2FEF80E792E0215024
:101C100080409040E1F700C00000279A2F9A2FEFF4
:101C200080E792E0215080409040E1F700C0000042
:101C300025982D982FEF80E792E02150804090402A
:101C4000E1F700C0000026982E982FEF80E792E081
:101C5000215080409040E1F700C0000027982F9865
:101C600056985E9825982D9826982E9827982F9804
:101C7000089584B1807F84B985B1807F85B98AB1A8
:101C8000837F8AB98BB1837F8BB93E98469808953C
:101C900080B38C7080BB81B3836F81BB0895AF929A
:101CA000BF92CF92DF92EF92FF920F931F93CF9349
:101CB000DF938091140190911501892B91F080910F
:101CC000EF018F5F8093EF0181110BC00E94760DB1
:101CD00090E09093150180931401892B11F40E94D8
:101CE000E10D02E213E049E2E42E43E0F42E680144
:101CF000C0E0B12C37E0A32EAC0E8C2F0E943B0528
:101D00008A2D0E943B058C2F0E948A05D6019C914A
:101D1000981719F08C93D1E001C0D0E08A2D0E9471
:101D20008A05F7019081981719F0808381E001C03E
:101D300080E0D82BBD2A0E94390ECF5FFFEFCF1A6B
:101D4000DF0A6FEFE61AF60AC730A1F60E94221AE0
:101D50006AEF70E00E94AC2D782F6091EE0166234F
:101D600081F11092EE01E0911C03F0911D03DF015F
:101D7000AC5ABF4FF12C2BEFE22ECAEFD0E0AF01EF
:101D80004A5F5F4F20812B3F99F0C22ED12C7217F2
:101D900020F09C012C193D0905C09E012C193D091C
:101DA000280F391F2530310514F0E08201C0F62ECE
:101DB0003196E417F50731F7EA17FB0701F7F092C0
:101DC000EE01BB20A1F140911C0350911D036091D5
:101DD000EE01E6E3F3E0EE24E394F12C9EE0D92E4D
:101DE000DE0ED8019D918D0180819827DA0120E0D7
:101DF00030E0E701022E01C0CC0F0A94EAF7CC2EA6
:101E0000C92241F0CC90DBEFBD2ECB1003C07C93F8
:101E10008C2761E011962F5F3F4F2630310549F73F
:101E20004A5F5F4F8193DE12DCCF6093EE0181E069
:101E3000DF91CF911F910F91FF90EF90DF90CF90A6
:101E4000BF90AF9008958F929F92AF92BF92CF9222
:101E5000DF92EF92FF920F931F93CF93DF93CDB753
:101E6000DEB728970FB6F894DEBF0FBECDBFFC01DA
:101E7000F080118183819481892B11F40C94A9172E
:101E80001F3F29F40FEFF01611F40C94A9176F01FE
:101E900085E0DE01119601900D928A95E1F7F60139
:101EA000228189819A81222349F00E94791B082F7F
:101EB000682F89819A810E94F21B03C00E94C51B72
:101EC000082F26E0129FF001112434E5039FE00D56
:101ED000F11D1124EF0DF11DEE0FFF1FE255FD4F17
:101EE00005911491F6018281003FFCE51F0709F47A
:101EF00061C0013F2CE51207A9F1882309F4FDC058
:101F0000033E3CE5130709F47DC008F071C0013EB3
:101F10009CE5190709F066C010921E030E94130B7E
:101F20000C3CFCE51F0709F4F2C008F420C1043D95
:101F3000ECE51E0709F4E2C668F1093D2CE512073D
:101F400009F438C708F494C70D3DFCE51F0711F4E8
:101F50000C9498170E3D2CE5120711F00C94A01765
:101F6000F6018281882311F40C94A91728960FB6E4
:101F7000F894DEBF0FBECDBFDF91CF911F910F91BF
:101F8000FF90EF90DF90CF90BF90AF909F908F9099
:101F90000C94DB1A003D2CE5120709F4BCC608F0CE
:101FA000E1C60E3C8CE5180709F4C2C608F0CDC6A0
:101FB000F6018281882309F4CCC781E028960FB608
:101FC000F894DEBF0FBECDBFDF91CF911F910F916F
:101FD000FF90EF90DF90CF90BF90AF909F908F9049
:101FE0000C94EB0A023EECE51E0791F481E00DC073
:101FF000043EFCE51F0741F0053E2CE5120741F4C5
:1020000084E003C082E001C083E080931E0386CF9A
:10201000013030E8130708F483CF7801E894F7F82B
:102020008091ED02809342021092ED0280911E0396
:10203000813071F048F08230D9F08430F9F486EEC6
:102040000E94F92888E118C082EE0E94012916C07A
:1020500080EE0E94012981EE0E94012988E10E9400
:10206000F92881EE0E94922880EE0E94922806C0F4
:1020700082EE0E94012987E50E94F9288FE39CE9FE
:102080000197F1F700C000005CE0A52EB12CC7015C
:102090000A2C02C0969587950A94E2F7282F2F7094
:1020A00041F0822F90E02A3010F44D9604C006973C
:1020B00002C087E290E00E94F92894E0A91AB108D2
:1020C000ECEFAE16EFEFBE0611F780911E038130E4
:1020D00039F040F0823031F0843051F488E206C0AB
:1020E0008CE204C082EE0E94922802C00E94F9286D
:1020F000809142028093ED0213CF013080E81807EF
:1021000008F40ECF0C3CFCE51F0709F035C1F601C1
:102110008281882309F41DC78091670390E00197AD
:1021200097FF02C080E090E08430910514F083E0D6
:1021300090E08093670360916303709164038091E2
:1021400065039091660328960FB6F894DEBF0FBE24
:10215000CDBFDF91CF911F910F91FF90EF90DF9056
:10216000CF90BF90AF909F908F900C94C609043C85
:102170003CE51307E9F4F6018281882309F4E9C6F6
:102180008091ED02827269F528960FB6F894DEBF51
:102190000FBECDBFDF91CF911F910F91FF90EF90B8
:1021A000DF90CF90BF90AF909F908F900C94EE0AED
:1021B000053C8CE5180708F0D9C405319CE51907E2
:1021C00020F1023C3CE5130709F45CC408F495C413
:1021D000F6018281882309F4BCC68091ED028272E7
:1021E00099F628960FB6F894DEBF0FBECDBFDF91EB
:1021F000CF911F910F91FF90EF90DF90CF90BF9004
:10220000AF909F908F900C94F80A0230ECE51E0777
:1022100008F469C0F6018281882309F4D1C00E94C4
:10222000D01A811102C00E94DB1A84E090E00E9463
:102230001B2A90E09093310380933003F801E35020
:10224000FC45E231F10530F4E35AFF4F8091300351
:102250000C94D42D80913003816027C0826025C00A
:10226000846023C0806121C080621FC080641DC063
:1022700080681BC08460886018C08E7F16C08D7F08
:1022800014C08B7F12C08F7E10C08F7D0EC08F7BDD
:102290000CC08F770AC08B7F877F07C087FB222700
:1022A00020F991E0922790FB87F9809330036091A9
:1022B000300384E090E00E942F2A1092ED022896CD
:1022C0000FB6F894DEBF0FBECDBFDF91CF911F9147
:1022D0000F91FF90EF90DF90CF90BF90AF909F90C5
:1022E0008F900C946A280115FCE51F0709F05FC068
:1022F000F6018281882309F42CC61092ED020E9417
:102300006A28FFEF04E31CE0F15000401040E1F7C1
:1023100000C00000F89481E08093E00080E28093A8
:10232000D8001092C9008FE19EE40197F1F700C038
:1023300000001DBA109268001CBC10BE1FBA10929B
:102340007A0010926E0010926F001092710010923D
:1023500072001092C9001092BC0014B817B81AB8D5
:102360001DB810BA1092BC0015B818B81BB81EB82A
:1023700011BA0C94003FEDC50D3C2CE5120708F096
:10238000D6CD043C3CE5130709F4F5CE08F0EEC3C6
:1023900005319CE5190708F014CF0230ECE51E0763
:1023A00008F038CF0115FCE51F0709F4D2C501304C
:1023B0001C4509F45CC381E0809348028093490284
:1023C000F601828100811181882349F0C8010E94B1
:1023D000791BF82E682FC8010E94F21B04C0C801A7
:1023E0000E94C51BF82EB8018F2D0E94190B182FC3
:1023F000382FF601258122952F700281011110924C
:10240000E1028091DF028770A9F0002399F080E259
:10241000810F883078F082E02F8338879E830E9476
:10242000BE1C8091DF028770EE24E3942F813885F3
:102430009E818111E12CA92EA2944FE0A422B12CFF
:10244000FCE0AF16B10408F0DAC2F501E159FF4F24
:102450000C94D42D892F807F9F70F92E882319F03A
:10246000F29480EFF8220023B9F0FF2009F458C25B
:1024700080E2810F883010F0311106C09091ED029A
:10248000F92AF092ED0205C09091E102F92AF0924A
:10249000E1020E94331B44C2812F38870E94922898
:1024A0003885FF2009F4ABC2105EF094183010F0AC
:1024B000311106C09091ED02F922F092ED0205C0B3
:1024C0009091E102F922F092E1020E94331B97C23F
:1024D000492F407F892F8F70403211F08295807F85
:1024E000332319F03130E9F025C0002381F0309119
:1024F000E202222351F0213041F4982F932B391717
:1025000009F47DC29093E2027AC2832B91C1222307
:1025100019F0213009F473C28E830E942D1B8E8125
:102520008DC1002321F0223008F069C281C1211140
:1025300066C284C1002321F0222309F479C1F0C1CD
:10254000222309F47BC1FEC1292F269526952370ED
:1025500030E02115310521F02130310559F04FC20D
:10256000002319F0812F937002C080E090E00E9458
:10257000CF0653C2002319F0812F937002C080E070
:1025800090E00E94B90649C20023F9F0153F51F0CE
:10259000163F71F0143FA9F480914A0290914B02CA
:1025A00081600BC080914A0290914B02826005C00D
:1025B00080914A0290914B02846090934B028093E9
:1025C0004A02812F0E946A191EC0153F51F0163F22
:1025D00071F0143FA9F480914A0290914B028E7FD2
:1025E0000BC080914A0290914B028D7F05C0809173
:1025F0004A0290914B028B7F90934B0280934A0248
:10260000812F0E94A2180E942E1A07C2892F837060
:1026100009F079C00111FFC1812F829586958770DD
:10262000880F880F412F4F7050E060E070E04A0142
:102630005B01082E04C0880C991CAA1CBB1C0A94C0
:10264000D2F714FF14C04FE050E060E070E08A0160
:102650009B0104C0000F111F221F331F8A95D2F760
:10266000B901A801409550956095709503C040E070
:1026700050E0BA01969596959370892F90E000915D
:10268000E3021091E4022091E5023091E6028230EB
:102690009105A9F083309105E9F0019759F0482997
:1026A00059296A297B29CB01BA016023712382232E
:1026B000932326C0802A912AA22AB32A1BC0482924
:1026C00059296A297B29CB01BA0160277127822702
:1026D000932716C0CB01BA01602371238223932371
:1026E0000E94F81C4091E3025091E4026091E502DF
:1026F0007091E602CB01BA01682979298A299B29C0
:102700000E94F81C88C1002319F0892F817001C034
:102710008695882309F47FC1812F829586958770DD
:10272000880F880F412F4F7050E060E070E04A0141
:102730005B01082E04C0880C991CAA1CBB1C0A94BF
:10274000D2F714FF14C04FE050E060E070E08A015F
:102750009B0104C0000F111F221F331F8A95D2F75F
:10276000B901A801409550956095709503C040E06F
:1027700050E0BA01969596959370892F90E000915C
:10278000DB021091DC022091DD023091DE0282300A
:102790009105A9F083309105E9F0019759F0482996
:1027A00059296A297B29CB01BA016023712382232D
:1027B000932326C0802A912AA22AB32A1BC0482923
:1027C00059296A297B29CB01BA0160277127822701
:1027D000932716C0CB01BA01602371238223932370
:1027E0000E94221C4091DB025091DC026091DD02CC
:1027F0007091DE02CB01BA01682979298A299B29C7
:102800000E94221C08C1412F50E0FA01E05EF1094C
:10281000E531F10508F07FC0E558FF4F0C94D42D49
:102820001F70892F8F71002331F00E94D71C812FD8
:102830000E948828E4C00E94991C812F0E947D2854
:10284000DEC0002311F12111DAC0292F2F7181E0A0
:1028500090E0A0E0B0E0AC01BD0104C0440F551F02
:10286000661F771F2A95D2F78091DB029091DC02D8
:10287000A091DD02B091DE028A019B010827192791
:102880002A273B27C901B80125C0223008F0B7C06C
:10289000DCCF002329F0892F8F712EC00023D9F3BC
:1028A000892F8F710E94991CAAC0002381F0292FC3
:1028B0002F7181E090E0A0E0B0E0BC01CD0104C048
:1028C000660F771F881F991F2A95D2F703C060E013
:1028D00070E0CB010E94221C92C0002381F0192FCE
:1028E0001F71812F0E94D71C28E0129FC001112464
:1028F00083608093DF02812F0E94D71C80C081E01B
:102900002F830E94BE1C2F81223008F478C082E001
:102910000E94BE1C74C0002339F0222309F4BBCFEF
:10292000812F0E9401296BC0222309F4B9CF1933EA
:1029300049F43FEF87EE93E0315080409040E1F75B
:1029400000C00000812F0E94922859C0323FB1F090
:1029500028F4303F49F0313FF9F028C0343FB9F056
:1029600058F0353F71F022C0002309F456C0909111
:102970006C0381E0892708C081E0082700936C037D
:102980004CC001114AC081E080936C0346C0011124
:1029900044C010926C0341C0002329F080916B0366
:1029A000882329F329C0222311F337C080916B03B8
:1029B0002223C1F0882341F090916C0381E08927A4
:1029C00080936C0310926B03812F002319F00E94F7
:1029D000012923C00E94922886E0F60111928A956F
:1029E000E9F71BC08823C9F0011117C090916C034F
:1029F00081E0892780936C0310926B030EC0F8E08E
:102A0000AF16B10441F04CF01AE0A11AB10822E06F
:102A1000A216B10410F40E94E506EE2009F499C252
:102A20008091DF0280FD95C2F60112828595859521
:102A300085950E94D71CC6010E94230F8091DF025A
:102A400085958595859528960FB6F894DEBF0FBEBF
:102A5000CDBFDF91CF911F910F91FF90EF90DF904D
:102A6000CF90BF90AF909F908F900C94991CF601DF
:102A70008281882309F46DC280914E038160809326
:102A80004E0367C2F6018281882309F462C28091F5
:102A9000630380FF2CC08E7F809363036091630388
:102AA0007091640380916503909166030E94C6094A
:102AB00010926903FFEF00E712E0F1500040104070
:102AC000E1F700C0000028960FB6F894DEBF0FBEF5
:102AD000CDBFDF91CF911F910F91FF90EF90DF90CD
:102AE000CF90BF90AF909F908F900C94F106816033
:102AF0008093630386958F7361CA06311C4509F084
:102B00005ACC9091ED02F6018281882381F09A7A65
:102B100081E009F480E080934302811102C069E200
:102B200001C065E38CE492E00E94981A0BC080918A
:102B30004302811102C069E201C065E38CE492E0C6
:102B40000E946D1A28960FB6F894DEBF0FBECDBF57
:102B5000DF91CF911F910F91FF90EF90DF90CF9079
:102B6000BF90AF909F908F900C94331B083CECE586
:102B70001E0751F5F6018281882309F4EAC180918C
:102B80006303881F8827881F90916403392F330FB0
:102B900097FB992790F921E04091660360E0832B31
:102BA00028960FB6F894DEBF0FBECDBFDF91CF9150
:102BB0001F910F91FF90EF90DF90CF90BF90AF905B
:102BC0009F908F900C94E209093CFCE51F0708F0E8
:102BD00056C0063C2CE5120721F5F60182818823B8
:102BE00009F4B7C120916303221F2227221F3091CD
:102BF0006403432F440F842F822B37FB992790F9CE
:102C0000863091051CF48E599E4F01C0069768E6E8
:102C100071E00E94C02D21E0409166036091650340
:102C2000BFCF073C1C45A8F4F6018281882309F434
:102C300090C120916303221F2227221F3091640339
:102C4000432F440F842F822B37FB992790F9069648
:102C5000DECFF6018281882309F47BC18091630372
:102C6000881F8827881F90916403392F330F97FBA3
:102C7000992790F921E0409166036FEF90CF0A3CCD
:102C80008CE51807F1F4F6018281882309F461C10B
:102C900040916603842F90E00C9714F04C5001C0D3
:102CA00040E080916303881F8827881F9091640308
:102CB000392F330F97FB992790F921E06091650335
:102CC0006ECF0B3C1C4580F4F6018281882309F409
:102CD00040C140916603842F90E0843F910514F435
:102CE000445FDFCF4FEFDDCFF6018281882309F407
:102CF00030C18091670390E0019616CAF601828187
:102D0000882309F426C10E9487098951893008F473
:102D100068CA89E153C9F6018281882309F419C17F
:102D20000E9487098950853008F45BCA89E046C94A
:102D3000F6018281882309F40CC10E948709825020
:102D4000833008F44ECA82E039C9F60182818823B3
:102D500009F4FFC00E9487098650823008F441CAF6
:102D600086E02CC9023DECE51E0769F4F60182817C
:102D7000882309F4EEC00E9487098551823008F447
:102D800030CA85E11BC9033D1C4568F4F601828108
:102D9000882309F4DEC00E9487098F50853008F42B
:102DA00020CA8FE00BC9F6018281882309F4D1C0C3
:102DB00088E104C9F60182818823E9F01092490272
:102DC0000E94221A909347028093460280E228963E
:102DD0000FB6F894DEBF0FBECDBFDF91CF911F912C
:102DE0000F91FF90EF90DF90CF90BF90AF909F90AA
:102DF0008F900C948828809149028823A9F080E262
:102E000028960FB6F894DEBF0FBECDBFDF91CF91ED
:102E10001F910F91FF90EF90DF90CF90BF90AF90F8
:102E20009F908F900C947D2880914602909147024C
:102E30000E94F8198639910510F780E20E947D28DA
:102E400088E20E94012988E228960FB6F894DEBF36
:102E50000FBECDBFDF91CF911F910F91FF90EF90EB
:102E6000DF90CF90BF90AF909F908F900C9492285E
:102E7000073D8CE5180761F5F6018281882351F042
:102E8000109248020E94221A9093450280934402B5
:102E900082E09DCF8091ED0285FF05C081E08093A7
:102EA0004802809349028091480281110FC08091AD
:102EB0004402909145020E94F8198639910530F438
:102EC00086E20E94012986E20E94922882E098CF41
:102ED000083D9CE5190710F1F601828181116ECF42
:102EE0008091ED0281FF05C081E0809348028093CC
:102EF000490280914902811182CF809146029091CE
:102F000047020E94F8198639910508F078CF87E2C8
:102F10000E94012987E20E94922871CF053D1C453D
:102F200009F049CAF6018281882399F083E246C8F4
:102F3000F6018281882369F082E080936A0309C0E8
:102F40000C3D1C4509F037CAF601828181111092AF
:102F50006A0328960FB6F894DEBF0FBECDBFDF918F
:102F6000CF911F910F91FF90EF90DF90CF90BF9086
:102F7000AF909F908F9008958091EF020895CF9326
:102F8000DF9300D01F92CDB7DEB72091120324301B
:102F900031F523E02983805891099B838A8382E05D
:102FA0008093E9008FEF9091E800815095FD06C075
:102FB00095ED9A95F1F700008111F5CF8091E80029
:102FC00085FF0DC040E050E063E070E0CE01019667
:102FD0000E947D1D8091E8008E778093E8000F901D
:102FE0000F900F90DF91CF9108950F931F93CF9380
:102FF000DF9300D01F92CDB7DEB78C010E94112362
:10300000823011F0843021F584E089831B830A83A8
:1030100082E08093E9008FEF9091E800815095FD68
:1030200006C095ED9A95F1F700008111F5CF8091DA
:10303000E80085FF0DC040E050E063E070E0CE01A5
:1030400001960E947D1D8091E8008E778093E800B4
:103050000F900F900F90DF91CF911F910F910895D6
:10306000CF93DF93EC010E941123823011F0843062
:10307000F9F482E08093E9009FEF8091E80091509D
:1030800085FD06C085ED8A95F1F700009111F5CF19
:103090008091E80085FF0CC040E050E066E070E001
:1030A000CE010E947D1D8091E8008E778093E8001C
:1030B000DF91CF910895CF93DF93EC010E9411230C
:1030C000823011F08430D9F580911301882339F0D2
:1030D0008091300387FF03C060E282E002C068E0B5
:1030E00081E08093E9008FEF9091E800815095FD99
:1030F00006C095ED9A95F1F700008111F5CF80910A
:10310000E80085FF1CC080911301811105C040E0DB
:1031100050E068E070E003C070E040E050E0CE01B5
:103120000E947D1D8091E8008E778093E80080E208
:10313000FE01A0EFB2E001900D928A95E1F7DF91D8
:10314000CF910895803F39F48091470387FF6CC089
:103150001092470369C0813F29F4809147031816F4
:10316000BCF362C090914603823F29F497FF5CC094
:103170001092460359C0833F19F41916CCF354C07A
:10318000893F41F48091480318160CF04DC010920D
:1031900048034AC08A3F29F48091480387FF44C00E
:1031A000F6CF8B3F39F48091490387FF3DC01092E1
:1031B00049033AC08C3F29F4809149031816BCF3A7
:1031C00033C0843F21F4809145038E7F17C0853F33
:1031D00021F4809145038D7F11C0863F21F48091B9
:1031E00045038B7F0BC0873F21F480914503877F88
:1031F00005C0883F31F4809145038F7E809345035D
:1032000013C08D3F21F48091EB028E7F0BC08E3F67
:1032100021F48091EB028D7F05C08F3F29F48091CE
:10322000EB028B7F8093EB028091460381110EC0ED
:103230008091470381110AC080914803811106C023
:1032400080914903811102C010924A030895809130
:10325000EB0280FD18C081FD14C082FD16C0809174
:103260004A03882381F08E3180F427E0829FC001D9
:1032700011246EE170E00E94C02D862F672B19F09B
:1032800005C083E0089581E0089587E00895809166
:10329000EB0280FD17C081FD17C082FD19C080912F
:1032A0004A03882399F0823398F429E1829FC00170
:1032B000112462E370E00E94C02D862F672B49F431
:1032C00081E0089586E008958CE0089585E00895F2
:1032D00089E10895803F21F40E944719819504C037
:1032E000813F29F40E944719809347030895823F44
:1032F00021F40E944719819504C0833F29F40E945C
:103300004719809346030895893F19F40E942719AD
:1033100005C08A3F31F40E942719819580934803A4
:1033200008958B3F21F40E942719819504C08C3F9A
:1033300029F40E942719809349030895843F21F4BA
:1033400080914503816017C0853F21F4809145033A
:10335000826011C0863F21F48091450384600BC0D8
:10336000873F21F480914503886005C0883F31F490
:103370008091450380618093450308958D3F21F43A
:103380008091EB0281600BC08E3F21F48091EB02B3
:10339000826005C08F3F29F48091EB0284608093A6
:1033A000EB02089578941F920F920FB60F9211249A
:1033B0008F939F93AF93BF938091E7029091E80220
:1033C000A091E902B091EA020196A11DB11D80937E
:1033D000E7029093E802A093E902B093EA02BF915A
:1033E000AF919F918F910F900FBE0F901F901895E6
:1033F000CF92DF92EF92FF920F931F932FB7F89423
:103400004091E7025091E8026091E9027091EA026E
:103410002FBF6A017B01EE24FF248C0120E030E005
:10342000C016D106E206F30610F4415051099A0184
:10343000281B390BC9011F910F91FF90EF90DF906E
:10344000CF9008952FB7F8948091E7029091E80209
:10345000A091E902B091EA022FBF0895E0913303F1
:10346000F0913403309749F082E080934403048064
:10347000F581E02D84E493E009950E94221A90934F
:103480004C0380934B0308951F920F920FB60F9237
:1034900011248F939F93AF93BF9380913503811134
:1034A00013C08091E7029091E802A091E902B091E7
:1034B000EA024196A11DB11D8093E7029093E802B4
:1034C000A093E902B093EA02BF91AF919F918F91CF
:1034D0000F900FBE0F901F9018952091130122237B
:1034E00021F02091300327FD04C0FC01329608969C
:1034F00019C0262F2695269526952E31C0F4FC015D
:10350000E20FF11D677081E090E001C0880F6A95BD
:10351000EAF7809592818923828308953196E8178E
:10352000F90729F020812613F9CF1082F7CF0895EB
:1035300020911301222321F02091300327FD05C0A3
:10354000FC0132962FEF30E019C0262F26952695E4
:1035500026952E3120F5FC01E20FF11D677081E008
:1035600090E001C0880F6A95EAF79281892B8283E7
:1035700008952F3F39F03F5F363041F041914613B7
:10358000F8CF0DC04111F7CF232FF5CF2F3F39F0E2
:10359000FC01E20FF11D27FDFA956283089508955D
:1035A00080E090E00E94292A21E08D3E9E4F09F0A4
:1035B00020E0822F08956DEE7EEF80E090E00E9483
:1035C0004D2A60E082E090E00E942F2A60E083E0D4
:1035D00090E00E942F2A1092E3021092E4021092CF
:1035E000E5021092E60260E084E090E00E942F2A5B
:1035F00060E085E090E00E942F2A60E086E090E0A5
:103600000E942F2A6FEF87E090E00E942F2A40E06F
:1036100050E0BA0188E090E00E94412A60E08DE02D
:1036200090E00E942F2A40E050E0BA0188E190E04B
:103630000E94412A60E087E190E00E942F2A40E04A
:1036400050E0BA018FE090E00E94412A40E050E053
:10365000BA0183E190E00C94412A8091E202811149
:103660001092E20208959091E1028091ED02892B7F
:103670002091E002982F922B90934C028091E202CD
:103680008823D9F0892B80934C02809113018823E1
:1036900031F08091300387FF02C08EE101C086E0E7
:1036A000EEE4F2E090E0815028F021912223D9F35A
:1036B0009F5FF9CF91110E942D1BE0913303F09190
:1036C00034033097A9F080911301882359F0809139
:1036D000300387FF07C080914C0280934D0285E044
:1036E00080934C020280F381E02D8CE492E00994F7
:1036F0000895BF92CF92DF92EF92FF920F931F93A4
:10370000CF93DF938C01C090E302D090E402E0906D
:10371000E502F090E6028091DB029091DC02A0913C
:10372000DD02B091DE02C82AD92AEA2AFB2ACFE1BB
:10373000D0E0D701C6010C2E04C0B695A795979589
:1037400087950A94D2F780FF07C0BC2EB8018C2F52
:103750000E94190B019719F4219758F7B12C8B2D62
:10376000DF91CF911F910F91FF90EF90DF90CF905D
:10377000BF900895CF93DF93EC010E94791BBE01A7
:103780000E94190BDF91CF910895292F220F920FDC
:10379000990F890F682F669566956695982F977093
:1037A00085E0689FB001112440E050E080E0FA011C
:1037B000E60FF71FEC55FD4F208130E0092E02C0C7
:1037C000369527950A94E2F721703327042E01C01D
:1037D000220F0A94EAF7822B4F5F5F4F4530510565
:1037E00031F70895292F220F920F990F890FA82FD3
:1037F000A695A695A695877051E001C0550F8A95AC
:10380000EAF785E0A89FD001112420E030E070E0C5
:10381000F901EA0FFB1FEC55FD4F4081CB01022E51
:1038200002C0969587950A94E2F781709927819551
:1038300084278523842780832F5F3F4F25303105E0
:1038400039F708950F931F93AB01BC01CB01AA2751
:10385000BB270097A105B10511F0E0E103C0DB0132
:10386000CA01E0E0092F1A2F2B2F3327011511056C
:103870002105310519F0E85FD901C8018C019D01CE
:10388000F4E03695279517950795FA95D1F7011528
:1038900011052105310519F0EC5FD901C8018C0132
:1038A0009D01F2E03695279517950795FA95D1F782
:1038B000011511052105310519F0EE5FD901C80187
:1038C000B695A79597958795892B8A2B8B2B09F011
:1038D000EF5F56985E9825982D9826982E982798F1
:1038E0002F988E2F90E0FC013197E730F105A8F476
:1038F000E057FF4F0C94D42D259A2D9A0EC0259A8F
:103900002D9A269A2E9A09C0259A2D9A04C0259A96
:103910002D9A269A2E9A279A2F9A4093DB0250933B
:10392000DC026093DD027093DE021F910F910C9414
:103930004F280F931F9341E050E060E070E004C017
:10394000440F551F661F771F8A95D2F740955095F3
:10395000609570958091DB029091DC02A091DD0270
:10396000B091DE028A019B01082319232A233B23FD
:10397000C901B8011F910F910C94221C2091DF0204
:10398000809582238093DF02982F977079F430E03E
:10399000482F082E000C550B2417350739F0859554
:1039A000859585950E94991C1092DF0208950F93CA
:1039B0001F9341E050E060E070E004C0440F551FE9
:1039C000661F771F8A95D2F78091DB029091DC0207
:1039D000A091DD02B091DE028A019B01082B192B18
:1039E0002A2B3B2BC901B8011F910F910C94221C6B
:1039F0006093E3027093E4028093E5029093E60201
:103A00000C944F288091A30290917202891719F0AB
:103A10008F5F8770FBCF0895CF93DF938093BB00B8
:103A200084E88093BC000E94221AEC019091BC00B3
:103A300097FD0AC00E94221A8C1B9D0B84369105AB
:103A4000A8F38EEF9FEF0CC02091B900287F81E092
:103A500090E0283211F480E090E0919581959109F1
:103A6000DF91CF9108950F931F93CF93DF93C82FCA
:103A70001092BC0084EA8093BC000E94221A8C0140
:103A80009091BC0097FD0AC00E94221A801B910BE6
:103A900084369105A8F38EEF9FEF2AC09091B9006C
:103AA000987F983041F09091B900987F903119F04B
:103AB0008FEF9FEF1DC0C093BB0084E88093BC00D4
:103AC0000E94221AEC019091BC0097FD08C00E9450
:103AD000221A8C1B9D0B84369105A8F3DCCF8091B4
:103AE000B900887F883111F0803411F780E090E0D0
:103AF000DF91CF911F910F910895CF92DF92FF92A6
:103B00000F931F93CF93DF931F92CDB7DEB7F82E9D
:103B10008B0199830E942822998181111CC0CF2C8E
:103B2000D92E01151105B1F08091E80085FD0AC07C
:103B30008091E8008E778093E8000E9428228823F5
:103B400081F309C0F60181916F018093F10001506A
:103B50001109E7CF80E00F90DF91CF911F910F9176
:103B6000FF90DF90CF9008951F93CF93DF93CDB751
:103B7000DEB7AA970FB6F894DEBF0FBECDBFE4E163
:103B8000F3E088E08E0F9091F10091938E13FBCFBC
:103B900080911503833009F460C030F4813071F0F6
:103BA000823009F49CC0B3C08A3009F488C08B30DD
:103BB00009F46BC0893009F0AAC020C080911403B9
:103BC000813A09F0A4C08091E800877F8093E800E3
:103BD0008091180390911903892B21F460E280EF02
:103BE00092E003C060E080E090E070E00E94AE22CE
:103BF0008091E8008B778093E80089C0809114035E
:103C0000813209F084C080911803909119030297C2
:103C100008F07DC08091E800877F8093E800809164
:103C2000E80082FD05C0809112038111F8CF6FC0BA
:103C30002091F3008091F20090E0922B029729F4FA
:103C40008091F1008B7F813021F48091F10080938D
:103C5000EF028091E8008B7756C080911403813A7F
:103C600009F055C08091180390911903892B09F030
:103C70004EC08091E800877F8093E8008091E80043
:103C800080FFFCCF8091130139C0809114038132F1
:103C9000F1F58091180390911903892BC1F580915A
:103CA000E800877F8093E8000E945A2280911603E3
:103CB000809313011092ED020E946A2828C080911F
:103CC0001403813221F58091E800877F8093E8001A
:103CD0000E945A22809117038093EE0218C08091AF
:103CE0001403813AA1F48091E800877F8093E80073
:103CF0008091E80080FFFCCF8091EE028093F1007C
:103D00008091E8008E778093E8000E945A2280918B
:103D1000E80083FFD6C18091140390911503492FC9
:103D200050E04A30510508F0CCC1FA01E956FF4F86
:103D30000C94D42D803821F0823809F0C2C108C01B
:103D40008091100390911103992389F082600FC034
:103D5000809118038F70873008F0B3C18093E90019
:103D60008091EB0085FB882780F91092E900909103
:103D7000E800977F9093E8008093F1001092F100A3
:103D800074C1282F2D7F09F09CC1882319F082303F
:103D900061F097C180911603813009F092C1933090
:103DA00009F080E0809311032EC0809116038111E9
:103DB0002AC0809118038F702FEF280F263008F04B
:103DC00080C18093E9002091EB0020FF1CC093305C
:103DD00021F48091EB00806214C09091EB0090611F
:103DE0009093EB0021E030E0A90102C0440F551F81
:103DF0008A95E2F74093EA001092EA008091EB0086
:103E000088608093EB001092E9008091E800877F42
:103E10002FC1811156C1109116031F778091E300C5
:103E20008078812B8093E3008091E800877F8093E6
:103E3000E8000E945A228091E80080FFFCCF809128
:103E4000E30080688093E300111102C082E001C0AA
:103E500083E08093120335C18058823008F031C16D
:103E600080911603909117038C3D53E0950779F5E7
:103E700083E08A838AE289834FB7F894DE01139640
:103E800020E03EE051E2E32FF0E050935700E49150
:103E900020FF03C0E295EF703F5FEF708E2F90E040
:103EA000EA3010F0C79601C0C0968D939D932F5FA6
:103EB000243149F74FBF8091E800877F8093E80065
:103EC0006AE270E0CE0101960E94AE22BDC0409130
:103ED000180350911903292F332723303105B9F0E6
:103EE0006CF42130310509F4FBC02230310509F0B2
:103EF000E8C08BE390E0E6EFF6E054C021323105F4
:103F000009F433C02232310509F43CC0DAC09927E4
:103F100081309105D1F05CF4892B09F0D2C0E9E73A
:103F2000F7E0E4918E2F90E0E9E7F7E038C08230C7
:103F3000910599F0039709F0C4C0E3E4F7E0E49138
:103F40008E2F90E0E3E4F7E02AC0E1E6F7E0E491A9
:103F50008E2F90E0E1E6F7E022C0E9E4F7E0E4919B
:103F60008E2F90E0E9E4F7E01AC04115510509F4FD
:103F7000BCC04130510509F0A4C089E090E0E1E205
:103F8000F7E010C04115510509F4B4C041305105A6
:103F900009F097C080EC90E0E6EFF5E003C00097F1
:103FA00009F48FC02091E800277F2093E80020913A
:103FB0001A0330911B032817390708F4C90140E0A0
:103FC000009789F120911203222309F43DC0253086
:103FD000D9F12091E80023FD37C02091E80022FDAF
:103FE0002FC02091E80020FFEBCF4091F3002091FB
:103FF000F20030E0342B009759F02830310540F4BE
:1040000044914093F100319601972F5F3F4FF3CFDA
:1040100041E02830310509F040E02091E8002E779A
:104020002093E800CDCF4111CDCF0AC0809112037B
:10403000882351F0853041F08091E80083FD04C071
:104040008091E80082FFF2CF8091E8008B77809327
:10405000E80037C08038A9F58091E800877F809319
:10406000E800809113038093F1008091E8008E773F
:104070008093E8000E945A2224C0811122C010912E
:1040800016031230F0F48091E800877F8093E800F7
:10409000109313030E945A22111106C08091E3006D
:1040A00087FD02C081E001C084E08093120342E0FA
:1040B00061EC81E00E94792242E261EC82E00E94A0
:1040C00079228091E80083FF1AC08091E800877F01
:1040D0008093E8008091EB0080628093EB000FC03A
:1040E00082E190E0E1E3F7E05DCF89E090E0E8E095
:1040F000F7E058CF80E490E0E6EBF6E053CFAA96E5
:104100000FB6F894DEBF0FBECDBFDF91CF911F91E8
:1041100008951F920F920FB60F9211242F933F9381
:104120004F935F936F937F938F939F93AF93BF93BF
:10413000CF93DF93EF93FF93C091E900CF7080910D
:10414000EC00D82FD17080FDD0E81092E90080916A
:10415000F000877F8093F00078940E94B41D109245
:10416000E9008091F00088608093F000CD2BCF7043
:10417000C093E900FF91EF91DF91CF91BF91AF9193
:104180009F918F917F916F915F914F913F912F916F
:104190000F900FBE0F901F901895E8EDF0E0808112
:1041A0008E7F80831092E2001092DA001092E1007C
:1041B000A0EEB0E08C9181608C9380818F778083BA
:1041C00019BCA7EDB0E08C918E7F8C9380818F7E9F
:1041D00080831092EC020895CF92DF92EF92FF92CB
:1041E0000F931F93CF93DF93C8EDD0E088818F7E2C
:1041F0008883E7EDF0E080818160808384E082BF86
:1042000081E08093EC0288818E7F888302EE10E04B
:10421000F80110821092DA0081EEC82ED12CF6013E
:10422000108288818F7788838881806888838881DD
:104230008F7D888319BC1092120310921303109281
:1042400011031092100390EEE92EF12CF7018081FA
:104250008B7F808388818160888342E060E080E09A
:104260000E947922F60180818E7F8083F80180810F
:1042700081608083808188608083F70180818E7F68
:104280008083888180618883DF91CF911F910F9116
:10429000FF90EF90DF90CF9008951F920F920FB68E
:1042A0000F9211242F933F934F935F936F937F93BC
:1042B0008F939F93AF93BF93EF93FF938091E10010
:1042C00082FF09C08091E20082FF05C08091E10079
:1042D0008B7F8093E1008091DA0080FF2AC080917B
:1042E000D80080FF26C08091DA008E7F8093DA00AC
:1042F0008091D90080FF18C080E189BD82E189BD2D
:1043000009B400FEFDCF81E0809312038091EC029E
:1043100081110FC00E94CD200E94EC208091E2000C
:1043200084608093E20005C019BC109212031092C1
:10433000EC028091E10080FF17C08091E20080FFD5
:1043400013C08091E2008E7F8093E2008091E200B2
:1043500080618093E2008091D80080628093D800D1
:1043600019BC85E0809312038091E10084FF34C082
:104370008091E20084FF30C080E189BD82E189BD87
:1043800009B400FEFDCF8091D8008F7D8093D800C6
:104390008091E1008F7E8093E1008091E2008F7E2A
:1043A0008093E2008091E20081608093E20080913E
:1043B0001303882311F084E007C08091E30087FD98
:1043C00002C081E001C083E0809312031092ED02ED
:1043D0000E946A280E94E5068091E10083FF27C0C1
:1043E0008091E20083FF23C08091E100877F80936A
:1043F000E10082E080931203109213038091E100A8
:104400008E7F8093E1008091E2008E7F8093E200B6
:104410008091E20080618093E20042E060E080E011
:104420000E9479228091F00088608093F000FF91D3
:10443000EF91BF91AF919F918F917F916F915F911C
:104440004F913F912F910F900FBE0F901F90189595
:104450002091E4003091E50095E64091EC00842F36
:10446000817040FF22C08091E80080FD1CC08091D7
:104470001203882391F0853091F08091EB0085FD47
:1044800010C04091E4005091E5004217530729F312
:104490009A01915011F784E0089582E0089583E035
:1044A000089581E0089580E008954091E80042FF7A
:1044B000DECF08958091140387FF11C08091E8003A
:1044C00082FD05C0809112038111F8CF11C0809147
:1044D000E8008B770BC080911203882349F080910C
:1044E000E80080FFF8CF8091E8008E778093E800A5
:1044F0000895982F973058F59093E900981739F060
:104500007091EC002091ED005091F00003C0242F39
:10451000762F50E021FF19C03091EB003E7F3093A1
:10452000EB003091ED003D7F3093ED003091EB00DA
:1045300031603093EB007093EC002093ED005093CA
:10454000F0002091EE0027FF07C09F5FD3CF8F7050
:104550008093E90081E0089580E0089520911A0396
:1045600030911B032617370748F06115710539F4A0
:104570002091E8002E772093E80001C0B90140E0C7
:1045800061157105A9F120911203222309F443C09A
:10459000253009F442C02091E80023FD40C020915D
:1045A000E80022FD32C02091E80020FFE9CF4091D1
:1045B000F3002091F20030E0342BFC01CF016115B3
:1045C000710559F02830310540F481918093F10054
:1045D000615071092F5F3F4FF1CF41E02830310525
:1045E00009F040E02091E8002E772093E800C8CF42
:1045F0004111C9CF0AC080911203882361F0853030
:1046000061F08091E80083FD0AC08091E80082FF9C
:10461000F2CF80E0089582E0089583E0089581E07C
:10462000089580916A03811107C08091120384303C
:1046300011F081E0089582E00895CF93DF93CDB724
:10464000DEB72C970FB6F894DEBF0FBECDBF84B790
:10465000877F84BF0FB6F894A89580916000886129
:1046600080936000109260000FBE80E8809361002C
:104670001092610085B7806885BF85B7806885BF67
:104680000E94CD200E94EC208091E2008460809303
:10469000E2007894809112038823A1F01091E90040
:1046A0001F709091EC00892F817090FD80E8182B8D
:1046B0001092E9008091E80083FD0E94B41D1F70F4
:1046C0001093E90082E084BD93E095BD9AEF97BD19
:1046D00080936E000E94760D90E090931501809378
:1046E00014010E94390E0E94480EA2E2B3E0E6E3F4
:1046F000F3E09EE0D92EDE0E11921D92DE12FCCF69
:1047000084E590E00E94DA2DAC0190931D03809324
:104710001C0320E030E08BEFFA01E20FF31F90E082
:1047200081939F5F9630E1F72A5F3F4F2435310533
:1047300099F70E94D01A811102C00E94DB1A8CE006
:1047400090E00E941B2A90E0A0E0B0E080931E035E
:1047500090931F03A0932003B093210389EA8093D1
:10476000800089E08093810024982C983F988AB13A
:104770008F7C8AB96E98479A8BB180638BB9769A91
:104780000E94E10D0E94D01A811102C00E94DB1A22
:1047900082E090E00E941B2A80934E0384E090E028
:1047A0000E941B2A90E0909331038093300383E0B2
:1047B00090E00E941B2A682F70E080E090E00E9449
:1047C000F81C80913203811139C080914E038160C1
:1047D00080934E030E94D01A811104C00E94DB1AFC
:1047E0000E94030B88E090E00E94232A60936303F9
:1047F0007093640380936503909366036E7771F4FE
:104800000E94030B88E090E00E94232A60936303D8
:104810007093640380936503909366030E949009EC
:10482000109269038091630380FF05C0869560E064
:104830008F730E949C0A81E08093320386E191E0AD
:1048400090933403809333038DE7E82E87E0F82EAE
:1048500080911203853009F047C0809112038430A3
:1048600021F11092350320E488E190E00FB6F8942E
:10487000A895809360000FBE2093600083B7817F6E
:10488000846083BF83B7816083BF7894889583B742
:104890008E7F83BF0FB6F894A895809160008861E1
:1048A00080936000109260000FBE809111038823F6
:1048B00009F4CECF0E94760D90E09093150180937D
:1048C00014010E94390E0E94480EE6E3F3E01192B3
:1048D000DE12FDCF0E944F0EE6E3F3E081918111DD
:1048E00078C1DE12FBCFB4CF0E944F0EEFE4F3E0AD
:1048F000A6E3B3E000E010E0302F2D914191422774
:10490000B9F180E090E050E0682F5A01082E02C013
:10491000B594A7940A94E2F7A0FE26C089833A834F
:1049200081E090E05C0102C0AA0CBB1C6A95E2F732
:10493000822F90E08A219B2121E0892B09F420E03D
:104940002B830E94221A8160782F9D838C8349815A
:104950005A816B818D810E94E305F801E15BFC4F78
:104960008081A826A0821AC001968630910561F642
:104970000F5F1F4F0E30110509F0BECF8FEF8E83F2
:104980008F8318860E94221A8160782F9A878987E0
:104990004E815F8168858A850E94E30580914B0383
:1049A00090914C030E94F8199C0190914A0399231D
:1049B00021F02431310508F46BC080914603109139
:1049C000470381110BC011111AC120914803211115
:1049D00016C120914903211112C15AC09F3F19F0FD
:1049E0009F5F90934A03181624F40E9447198093FE
:1049F00046038091460387FF05C00E9447198195B1
:104A000080934603111624F40E94471980934703AC
:104A10008091470387FF05C00E94471981958093C5
:104A2000470340914603442379F0309147033323F1
:104A300059F025EB4203A0011124509346033203A1
:104A4000C00111249093470380914803181624F461
:104A50000E942719809348038091480387FF05C06F
:104A60000E94271981958093480380914903181665
:104A700024F40E942719809349038091490387FFFA
:104A800005C00E9427198195809349030E942E1A20
:104A900010914D030E94E506181721F00E94E506CB
:104AA00080934D0380916903882309F4D1CE8091CE
:104AB0006803E0916303E695EF73E81BE0935F03FF
:104AC000823049F4F0E0E557F84FE4910E2F10E002
:104AD00026E439E048C0863049F4F0E0E857F84F62
:104AE000E4910E2F10E02FE239E03DC0893051F4FF
:104AF000E695F0E0EB57F84FE4910E2F10E020E739
:104B000038E031C08F3051F4E695F0E0EE57F84FC1
:104B1000E4910E2F10E024EF37E025C0853149F4F1
:104B2000F0E0E158F84FE4910E2F10E02DE837E067
:104B30001AC0883179F0833231F4F701059114916C
:104B400020ED38E010C0843251F404EF11E028E089
:104B500037E009C008EE13E024E537E004C000EDBB
:104B600017E027EE33E0809160038823A9F01092CC
:104B700060032B873C870E94221AA801409550951C
:104B8000840F951F90935E0380935D0310926203E0
:104B9000109261033C852B8580915D0390915E03AB
:104BA0002B873C870E94F8192B853C85801791073D
:104BB00008F44ECEE0915D03F0915E030E0F1F1FCF
:104BC00010935E0300935D038DE593E0F901099571
:104BD0003FCE80E189BD82E189BD09B400FEFDCFF1
:104BE0008091D8008F7D8093D8008091E000826012
:104BF0008093E0008091E00081FDFCCF29CE9F3FB3
:104C000009F0EECEF6CE8091710282958F7009F098
:104C100054C080916E02882309F44FC08091A30292
:104C2000A091720260916C0270916D0240916F02CE
:104C300050917002B6E08A1709F43FC090E0411528
:104C40005105C1F17F3F11F46F3FA1F1B89FF00111
:104C5000B99FF00D1124ED58FD4F218172132AC028
:104C60002081621327C02281211124C02381348135
:104C70002417350710F421503109241B350B263930
:104C80003105C0F4209171022F70206120937102D0
:104C900026E0289FF001299FF00D1124E858FD4FD0
:104CA00080818F70806180838CE692E00E94230F68
:104CB0000C94021D01968770BECF08950E94BA1B06
:104CC000292F2F7092959F70E92FF0E03297EE30E8
:104CD000F105B8F4EF55FF4F0C94D42D803F99F0B7
:104CE00018F4803E70F40FC0843F59F40CC0803E2D
:104CF00050F0813F31F407C0822F869586958695C6
:104D0000089580E0089581E00895BF92CF92DF92E8
:104D1000EF92FF920F931F93CF93DF93CDB7DEB740
:104D200061970FB6F894DEBF0FBECDBF8C0185E052
:104D3000F801DE011D9601900D928A95E1F7D801E8
:104D40003C9111962C9111971296EC901297139614
:104D5000CD90DC90149750916C0260916D0280911F
:104D60006F0290917002009709F44FC16F3F19F4E0
:104D70005F3F09F44AC1B0906E02BB2009F4ECC059
:104D800040917102C816D90628F0F601E81BF90B0C
:104D9000CF0104C0809590958C0D9D1DFF24F39448
:104DA0008639910548F0F12C407F09F09FC08CE6D0
:104DB00092E00E94230F21C1842F807F09F044C01C
:104DC000621312C0531310C0E1100EC04F70406147
:104DD000409371028CE692E00E94230F8091710251
:104DE000D80115968C932EC0CD2819F12F3F11F4C0
:104DF0003F3FF9F0FE2CE1101CC08091A3024091CE
:104E0000720256E0841709F458C090E0589FF001F0
:104E1000599FF00D1124ED58FD4F6181261306C0F6
:104E20006081361303C06281611103C001968770EF
:104E3000E9CFFE2CEE2009F421C18091710281603E
:104E400080937102F12C1AC162130AC0531308C077
:104E5000E11006C080917102D80115968C93B0C004
:104E60003D872E878D859E850E945E268823D1F101
:104E7000EE20C1F120917102822F82958F7090E017
:104E8000029774F080916C0290916D0298878F83E5
:104E90001986DB86CA862C87CE0107960E94230FCF
:104EA00086E0F801ACE6B2E001900D928A95E1F758
:104EB0000E940326FF24F394E1C03D872E878D8551
:104EC0009E850E94BA1B292F22952F7030E0223038
:104ED00031050CF0C7C09F7009F0C1C0805E8830FA
:104EE00008F4CCC0C8010E94230FE4CF621314C0A1
:104EF000531312C0E11010C080917102F801858334
:104F0000C8010E94230F86E0ECE6F2E0DF011D926B
:104F10008A95E9F7FB2CB2C03D872E878D859E854B
:104F20000E945E268823F1F2EE20E1F220917102C8
:104F3000822F82958F7090E002970CF4B1CF809110
:104F40006C0290916D029A8389831B82DD82CC82F0
:104F50002E83CE010196A2CFC816D90638F0C81A02
:104F6000D90AB6E9CB16D10450F007C080959095C8
:104F70008C0D9D1D8639910510F0F12C3EC0FE2C44
:104F8000EE2009F4AFCF621327C0531325C0209140
:104F9000710220FD18C0822F82958F70482F50E03B
:104FA0004115510581F0F80125834F30510541F03D
:104FB0008F5F982F9295907F822F8F70892B85839A
:104FC000C8010E94230F86E0F801ACE6B2E0019030
:104FD0000D928A95E1F752C03D872E878D859E857B
:104FE0000E945E2681115CCF809171028160809366
:104FF0007102C8010E94230F41C0ECE6F2E086E096
:10500000DF011D928A95E9F739C0EE2009F46ACFD5
:105010003D872E878D859E850E945E26F82E8823EB
:1050200009F460CF86E0F801ACE6B2E001900D92A1
:105030008A95E1F780916C0290916D020E94BA1BF3
:1050400092959F70963041F480916C0391E089278E
:1050500080936C0390936B030E9403260FC0811111
:105060003DCF0CC0243031050CF03CCF9F7009F4CB
:1050700035CFF8019581907F09F030CF8F2D619663
:105080000FB6F894DEBF0FBECDBFDF91CF911F9159
:105090000F91FF90EF90DF90CF90BF900895109206
:1050A000E1021092E0020E94331BE4E4F3E086E0A8
:1050B000DF011D928A95E9F710924A031092EB02E4
:1050C0000E942E1A80E090E00E94CF0680E090E0DF
:1050D0000C94B90680911301882331F0809130033C
:1050E00087FF02C08EE101C086E0EEE4F2E0DF015E
:1050F0001D928A95E9F70C944F28882341F08095FA
:105100009091ED0289238093ED020C94331B089556
:10511000882339F09091ED02892B8093ED020C9455
:10512000331B0895882309F463C0823869F40E9410
:10513000E50681FF5DC069E38CE492E00E94981A65
:105140000E94331B69E30EC0833891F40E94E50688
:1051500080FF4EC063E58CE492E00E94981A0E94A2
:10516000331B63E58CE492E00E946D1A0C94331BB0
:10517000843869F40E94E50682FF3AC067E48CE453
:1051800092E00E94981A0E94331B67E4EBCF9CEFD9
:10519000980F913A10F4682FE5CF90E2980F98306D
:1051A00088F4877021E030E0A90102C0440F551F48
:1051B0008A95E2F7CA0180959091ED028923809348
:1051C000ED02D4CF9BE5980F933020F480E090E07F
:1051D0000C94CF0698E5980F973120F480E090E08A
:1051E0000C94B906803F20F00E94A2180C942E1A4D
:1051F0000895CF93C82F0E9401298C2FCF910C9432
:105200009228882309F416C18238B1F40E94E50679
:1052100081FD10C169E38CE492E00E94981A0E941B
:10522000331B2FEF41EE54E0215040405040E1F756
:1052300000C0000069E317C08338D9F40E94E50676
:1052400080FDF8C063E58CE492E00E94981A0E9409
:10525000331B8FEF91EE24E0815090402040E1F726
:1052600000C0000063E58CE492E00E946D1A0C948B
:10527000331B8438B1F40E94E50682FDDBC067E48D
:105280008CE492E00E94981A0E94331B4FEF51EE7B
:1052900084E0415050408040E1F700C0000067E4E6
:1052A000E2CF9CEF980F913A30F4682F8CE492E0B3
:1052B0000E94981ADCCF90E2980F983080F48770A3
:1052C00021E030E0A90102C0440F551F8A95E2F7A2
:1052D000CA019091ED02892B8093ED02C8CF9BE526
:1052E000980F933070F4853A29F0863A31F083E8CC
:1052F00090E005C081E890E002C082E890E00C9464
:10530000CF0698E5980F973108F08EC0883A09F4D7
:1053100045C0893A09F445C08A3A09F445C08B3A38
:1053200009F445C08C3A09F445C08B3B09F445C0EB
:105330008C3B09F445C08D3A09F445C0803B09F423
:1053400045C08E3A09F445C08F3A09F445C0813B07
:1053500009F445C0823B09F445C0833B09F445C0CC
:10536000843B09F445C0853B09F445C0863B09F4FC
:1053700045C0873B09F445C0883B09F445C0893BDB
:1053800009F445C08D3B09F445C08E3B09F445C086
:105390008A3B09F445C080E090E044C082EE90E092
:1053A00041C089EE90E03EC08AEE90E03BC085EBC4
:1053B00090E038C086EB90E035C083EB90E032C0DF
:1053C00084EB90E02FC087EB90E02CC08CEC90E059
:1053D00029C08DEC90E026C083E891E023C08AE8E4
:1053E00091E020C082E991E01DC084E991E01AC0FB
:1053F00081E292E017C083E292E014C084E292E07E
:1054000011C085E292E00EC086E292E00BC087E216
:1054100092E008C08FE690E005C080E790E002C00F
:105420008AE292E00C94B906803F20F00E946A194B
:105430000C942E1A0895F999FECF92BD81BDF89A69
:10544000992780B50895A6E1B0E044E050E00C94BF
:10545000552AA8E1B0E042E050E00C94552A262FEE
:10546000F999FECF92BD81BDF89A019700B402165A
:1054700039F01FBA20BD0FB6F894FA9AF99A0FBE08
:1054800008950396272F0E94302A0E942F2A252F45
:105490000E94302A242F0C94302A0196272F0E9434
:1054A000302A0C942F2ADC01CB01FC01F999FECFA4
:1054B00006C0F2BDE1BDF89A319600B40D9241509C
:1054C0005040B8F708955058BB27AA270E947B2A5E
:1054D0000C94262C0E94182C38F00E941F2C20F0CF
:1054E00039F49F3F19F426F40C94EE2B0EF4E0955A
:1054F000E7FB0C94E82BE92F0E94372C58F3BA17DE
:10550000620773078407950720F079F4A6F50C94D9
:10551000592C0EF4E0950B2EBA2FA02D0B01B901DA
:1055200090010C01CA01A0011124FF27591B99F019
:10553000593F50F4503E68F11A16F040A22F232F25
:10554000342F4427585FF3CF469537952795A79575
:10555000F0405395C9F77EF41F16BA0B620B730B1C
:10556000840BBAF09150A1F0FF0FBB1F661F771F8D
:10557000881FC2F70EC0BA0F621F731F841F48F442
:10558000879577956795B795F7959E3F08F0B0CFCB
:105590009395880F08F09927EE0F979587950895B2
:1055A0000E94E42A0C94262C0E941F2C58F00E9482
:1055B000182C40F029F45F3F29F00C94E82B51118E
:1055C0000C945A2C0C94EE2B0E94372C68F39923E0
:1055D000B1F3552391F3951B550BBB27AA276217EF
:1055E0007307840738F09F5F5F4F220F331F441FFC
:1055F000AA1FA9F335D00E2E3AF0E0E832D0915030
:105600005040E695001CCAF72BD0FE2F29D0660F1C
:10561000771F881FBB1F261737074807AB07B0E85F
:1056200009F0BB0B802DBF01FF2793585F4F3AF065
:105630009E3F510578F00C94E82B0C945A2C5F3F58
:10564000E4F3983ED4F3869577956795B795F795EB
:105650009F5FC9F7880F911D9695879597F90895D3
:10566000E1E0660F771F881FBB1F6217730784076F
:10567000BA0720F0621B730B840BBA0BEE1F88F77E
:10568000E095089529F416F00C94E82B0C94592C0D
:105690000C94EE2B0E943F2CA8F39638A0F707F845
:1056A0000F92E8942BE33AEA48EB5FE70E94EC2C78
:1056B0000F920F920F924DB75EB70F920E94A22CDD
:1056C000EEE5F1E00E94F12B4F915F91EF91FF9198
:1056D000E595EE1FFF1F49F0FE57E0684427EE0FE7
:1056E000441FFA95E1F74195550B0E946C2C0F90E1
:1056F00007FE0C94602C08950E943F2C88F09F5761
:1057000098F0B92F9927B751B0F0E1F0660F771FE5
:10571000881F991F1AF0BA95C9F714C0B13091F0DB
:105720000E94592CB1E008950C94592C672F782FC2
:105730008827B85F39F0B93FCCF3869577956795A0
:10574000B395D9F73EF490958095709561957F4F0C
:105750008F4F9F4F0895E89409C097FB3EF49095B2
:105760008095709561957F4F8F4F9F4F9923A9F03A
:10577000F92F96E9BB279395F695879577956795C9
:10578000B795F111F8CFFAF4BB0F11F460FF1BC00D
:105790006F5F7F4F8F4F9F4F16C0882311F096E9A0
:1057A00011C0772321F09EE8872F762F05C066234E
:1057B00071F096E8862F70E060E02AF09A95660F07
:1057C000771F881FDAF7880F9695879597F90895C0
:1057D00097F99F6780E870E060E008959FEF80ECA4
:1057E0000895DF93CF931F930F93FF92EF92DF9271
:1057F0007B018C01689406C0DA2EEF010E94E92C2F
:10580000FE01E894A5912591359145915591A6F316
:10581000EF010E947B2AFE019701A801DA9469F743
:10582000DF90EF90FF900F911F91CF91DF9108953E
:1058300000240A941616170618060906089500246F
:105840000A9412161306140605060895092E0394E9
:10585000000C11F4882352F0BB0F40F4BF2B11F45D
:1058600060FF04C06F5F7F4F8F4F9F4F089557FDBC
:105870009058440F551F59F05F3F71F04795880FBE
:1058800097FB991F61F09F3F79F087950895121655
:1058900013061406551FF2CF4695F1DF08C0161601
:1058A00017061806991FF1CF8695710561050894B2
:1058B0000895E894BB2766277727CB0197F90895C9
:1058C0009B01AC0160E070E080E89FE30C94D02A7B
:1058D0000C94E82B0C944B2D0E943F2CD8F3992369
:1058E000C9F3940F511DA3F39150504094F059F017
:1058F000882332F0660F771F881F91505040C1F700
:105900009E3F51052CF7880F911D9695879597F925
:1059100008955F3FACF0983E9CF0BB278695779545
:105920006795B79508F4B1609395C1F7BB0F58F729
:1059300011F460FFE8CF6F5F7F4F8F4F9F4FE3CF32
:105940000C945A2CFA01DC01AA0FBB1F9B01AC017D
:10595000BF5728F4222733274427507820C0B75157
:1059600090F4AB2F0024469537952795011CA395FD
:10597000D2F3002071F0220F331F441FB395DAF3E6
:105980000ED00C94632A61307105A0E88A07B946ED
:1059900030F49B01AC0166277727882790783096F2
:1059A00021F0208331834283538308950E94E92CA0
:1059B0000C94262C0E94182C38F00E941F2C20F0EA
:1059C000952311F00C94E82B0C94EE2B11240C94DD
:1059D0005A2C0E94372C70F3959FC1F3950F50E01D
:1059E000551F629FF001729FBB27F00DB11D639F91
:1059F000AA27F00DB11DAA1F649F6627B00DA11D37
:105A0000661F829F2227B00DA11D621F739FB00DDC
:105A1000A11D621F839FA00D611D221F749F33274C
:105A2000A00D611D231F849F600D211D822F762FE5
:105A30006A2F11249F5750409AF0F1F088234AF0C2
:105A4000EE0FFF1FBB1F661F771F881F915050402E
:105A5000A9F79E3F510580F00C94E82B0C945A2C2A
:105A60005F3FE4F3983ED4F3869577956795B795B5
:105A7000F795E7959F5FC1F7FE2B880F911D9695CF
:105A8000879597F908959F930E945B2D0F9007FCCF
:105A9000EE5F0C94842D9F3F31F0915020F4879558
:105AA00077956795B795880F911D9695879597F986
:105AB00008950C94EE2B0E943F2CD8F3E894E0E07C
:105AC000BB279F57F0F02AED3FE049EC06C0EE0FF0
:105AD000BB0F661F771F881F28F0B23A6207730753
